DIMOB                                                                                                                                                                                                                                                                                                                                                                                 
R010154582600010720210000000000000000000000GAFISA SA - SAO PAULO-SP                                    07069698631Av. Juscelino Kubitschek 1830 Vila Nova Conceição                                                                       SP7107                              
R030154582600010720210000102706488956   MILENA SKRABA ZANETTI                                       172936290920210000009550000000000008000000UR Casemiro de Abreu AP 00000801 VILLE DU SOLEIL Porto Alegre904200008801                    RS          
R030154582600010720210000201633685977   CLEVERSON ZANETTI                                           172936290920210000009550000000000008000000UR Casemiro de Abreu AP 00000801 VILLE DU SOLEIL Porto Alegre904200008801                    RS          
R030154582600010720210000329485197802   DANIELA DE OLIVEIRA TREVISAN                                172892130920210000005807922000000059297148URUA VIEIRA DE ALMEIDA, 550 AP 00000013 GAFISA SQUARE IPIRANG042680407107                    SP          
R030154582600010720210000428962961822   RODRIGO DOS SANTOS LOPES                                    172892130920210000005807922000000059297148URUA VIEIRA DE ALMEIDA, 550 AP 00000013 GAFISA SQUARE IPIRANG042680407107                    SP          
R030154582600010720210000530552697800   RAFAEL TORRES SANCHES                                       172842170820210000009480000000000095124484URUA VIEIRA DE ALMEIDA, 550 AP 00000283 GAFISA SQUARE IPIRANG042680407107                    SP          
R030154582600010720210000633745122836   JOSIANE SERRANO SCHLAUTMANN                                 172842170820210000009480000000000095124484URUA VIEIRA DE ALMEIDA, 550 AP 00000283 GAFISA SQUARE IPIRANG042680407107                    SP          
R030154582600010720210000724594645844   FABIO PANTANI                                               172825310720210000003867840000000038678400URUA VIEIRA DE ALMEIDA, 550 AP 00000011 GAFISA SQUARE IPIRANG042680407107                    SP          
R030154582600010720210000812867735807   TELMA SUELI SARAIVA PANTANI                                 172825310720210000007508160000000075081600URUA VIEIRA DE ALMEIDA, 550 AP 00000011 GAFISA SQUARE IPIRANG042680407107                    SP          
R030154582600010720210000903701979847   ELISABETH CASTRO TEIXEIRA                                   172552280620210000008537600000000085376000URUA VIEIRA DE ALMEIDA, 550 AP 00000263 GAFISA SQUARE IPIRANG042680407107                    SP          
R030154582600010720210001032032929805   JULIANA BARBOSA ZUQUER GIARETTA                             172404300420210000003839874000000039927217URUA VIEIRA DE ALMEIDA, 550 AP 00000014 GAFISA SQUARE IPIRANG042680407107                    SP          
R030154582600010720210001122377627838   JULIANO CIASCA GIARETTA                                     172404300420210000003839874000000039927217URUA VIEIRA DE ALMEIDA, 550 AP 00000014 GAFISA SQUARE IPIRANG042680407107                    SP          
R030154582600010720210001291821754620   PAULO JOSE APARECIDO                                        172192180220210000009788100000000097881000URUA VIEIRA DE ALMEIDA, 550 AP 00000282 GAFISA SQUARE IPIRANG042680407107                    SP          
R030154582600010720210001305969390607   ALMICHAELA SANTOS                                           172192180220210000009788100000000097881000URUA VIEIRA DE ALMEIDA, 550 AP 00000282 GAFISA SQUARE IPIRANG042680407107                    SP          
R030154582600010720210001432334914843   JANAINA LEMES BARCELOS                                      172195190220210000005792754000000061474087URUA VIEIRA DE ALMEIDA, 550 AP 00000023 GAFISA SQUARE IPIRANG042680407107                    SP          
R030154582600010720210001580250530082   RODRIGO RECH BARCELOS                                       172195190220210000005792754000000061474087URUA VIEIRA DE ALMEIDA, 550 AP 00000023 GAFISA SQUARE IPIRANG042680407107                    SP          
R030154582600010720210001600348870833   SUSANA DE ANGELIS CAMPANER                                  172248280220210000004230000000000042300000URUA VIEIRA DE ALMEIDA, 550 AP 00000063 GAFISA SQUARE IPIRANG042680407107                    SP          
R030154582600010720210001775583801891   SUELI DE ANGELIS CAMPANER                                   172248280220210000004230000000000042300000URUA VIEIRA DE ALMEIDA, 550 AP 00000063 GAFISA SQUARE IPIRANG042680407107                    SP          
R030154582600010720210001813817605706   ANA PAULA DA SILVA FRANCA                                   173056291020210000005208500000000014085000UESTRADA DO BANANAL,615 AP 00000705 TODAY MODERN RESIDENCES R227500126001                    RJ          
R030154582600010720210001913864740703   FERNANDA BUARQUE SIMAS BISPO GABRIE                         172940290920210000002586025000000026351780UESTRADA DO BANANAL,615 AP 00000706 TODAY MODERN RESIDENCES R227500126001                    RJ          
R030154582600010720210002008282022730   FABIO BASTOS GABRIEL                                        172940290920210000002586025000000026351780UESTRADA DO BANANAL,615 AP 00000706 TODAY MODERN RESIDENCES R227500126001                    RJ          
R030154582600010720210002110211376779   DÉBORA RODRIGUES CANDIDO                                    172789300620210000002249125000000022491069UESTRADA DO BANANAL,615 AP 00000301 TODAY MODERN RESIDENCES R227500126001                    RJ          
R030154582600010720210002221485191823   CIDIMAR CÂNDIDO JUNIOR                                      172789300620210000002249125000000022491069UESTRADA DO BANANAL,615 AP 00000301 TODAY MODERN RESIDENCES R227500126001                    RJ          
R030154582600010720210002312170535730   PHILLIPS LOPES PANCINI                                      172778300620210000001775625000000018649690UESTRADA DO BANANAL,615 AP 00000505 TODAY MODERN RESIDENCES R227500126001                    RJ          
R030154582600010720210002411290542767   LUANA FONSECA PACHECO                                       172778300620210000001775625000000018649690UESTRADA DO BANANAL,615 AP 00000505 TODAY MODERN RESIDENCES R227500126001                    RJ          
R030154582600010720210002515899139730   THAINÁ DE LIZO RIBEIRO LEITE                                172598300620210000003338175000000032567913UESTRADA DO BANANAL,615 AP 00000204 TODAY MODERN RESIDENCES R227500126001                    RJ          
R030154582600010720210002609456837742   JOANA DA COSTA NOGUEIRA DA SILVA                            172558300620210000003456550000000035529290UESTRADA DO BANANAL,615 AP 00000503 TODAY MODERN RESIDENCES R227500126001                    RJ          
R030154582600010720210002705701327701   LEILANE DE ALBURQUERQUE BARROS                              172426120520210000001799300000000018350047UESTRADA DO BANANAL,615 AP 00000605 TODAY MODERN RESIDENCES R227500126001                    RJ          
R030154582600010720210002808503325675   LUCAS VAZ MOREIRA                                           172426120520210000001799300000000018350047UESTRADA DO BANANAL,615 AP 00000605 TODAY MODERN RESIDENCES R227500126001                    RJ          
R030154582600010720210002908134321623   ALINE MELO ALVES                                            172373280420210000001788883000000017509901UESTRADA DO BANANAL,615 AP 00000606 TODAY MODERN RESIDENCES R227500126001                    RJ          
R030154582600010720210003010780615727   RODOLPHO DA SILVA BARROS                                    172373280420210000001788883000000017509901UESTRADA DO BANANAL,615 AP 00000606 TODAY MODERN RESIDENCES R227500126001                    RJ          
R030154582600010720210003102135331708   WANIA RODRIGUES DA SILVA                                    172329310320210000001751950000000018361270UESTRADA DO BANANAL,615 AP 00000506 TODAY MODERN RESIDENCES R227500126001                    RJ          
R030154582600010720210003202555193707   RAUL ANTONIO NASCIMENTO DA SILVA                            172329310320210000001751950000000018361270UESTRADA DO BANANAL,615 AP 00000506 TODAY MODERN RESIDENCES R227500126001                    RJ          
R030154582600010720210003313651460738   JULIANA DA SILVA BARROS CORREIA                             172187180220210000001754317500000018102723UESTRADA DO BANANAL,615 AP 00000405 TODAY MODERN RESIDENCES R227500126001                    RJ          
R030154582600010720210003412457860750   THIAGO CORREIA BARROS                                       172187180220210000001754317500000018102723UESTRADA DO BANANAL,615 AP 00000405 TODAY MODERN RESIDENCES R227500126001                    RJ          
R030154582600010720210003507069698631   SHEYLA CASTRO RESENDE                                       172402300420210000004665000000000048006026URua Mario Whately, 383 AP 00000072 SCENA ALTO DA LAPA São Pa050831407107                    SP          
R030154582600010720210003605636966997   VICTOR HUGO NAVARRO RIBEIRO                                 172402300420210000004665000000000048006026URua Mario Whately, 383 AP 00000072 SCENA ALTO DA LAPA São Pa050831407107                    SP          
R030154582600010720210003736571770865   GIOVANNA CUFARO GONÇALVES                                   173287311220210000001738770000000000887700UAlameda Porcelana, 185 AP 00000163 MOOV ESPACO CERAMICA São 095311507077                    SP          
R030154582600010720210003836571769859   PEDRO GABRIEL CUFARO GONCALVES                              173287311220210000001738770000000000887700UAlameda Porcelana, 185 AP 00000163 MOOV ESPACO CERAMICA São 095311507077                    SP          
R030154582600010720210003907762647880   ANDREA DE CASSIA CUFARO                                     173287311220210000001791460000000000914600UAlameda Porcelana, 185 AP 00000163 MOOV ESPACO CERAMICA São 095311507077                    SP          
R030154582600010720210004022534938800   JOSE DE OLIVEIRA                                            172596300620210000002632000000000026320000UAlameda Porcelana, 185 AP 00000153 MOOV ESPACO CERAMICA São 095311507077                    SP          
R030154582600010720210004116138440854   ANA GRACIETE HILARIO DE OLIVEIRA                            172596300620210000002632000000000026320000UAlameda Porcelana, 185 AP 00000153 MOOV ESPACO CERAMICA São 095311507077                    SP          
R030154582600010720210004234053629896   FERNANDA BLASQUES                                           172582300620210000002180874000000002521867UAlameda Porcelana, 185 AP 00000004 MOOV ESPACO CERAMICA São 095311507077                    SP          
R030154582600010720210004334746411824   HENRIQUE ALMEIDA CREMA                                      172582300620210000002180874000000002521867UAlameda Porcelana, 185 AP 00000004 MOOV ESPACO CERAMICA São 095311507077                    SP          
R030154582600010720210004407256315899   ELISABETH PANAGACCI ESTEVAM                                 172533220620210000002448000000000024480000UAlameda Porcelana, 185 AP 00000154 MOOV ESPACO CERAMICA São 095311507077                    SP          
R030154582600010720210004505049194822   CELSO LUIZ ESTEVAM                                          172533220620210000002448000000000024480000UAlameda Porcelana, 185 AP 00000154 MOOV ESPACO CERAMICA São 095311507077                    SP          
R030154582600010720210004607256315899   ELISABETH PANAGACCI ESTEVAM                                 172534220620210000002954500000000029545000UAlameda Porcelana, 185 AP 00000081 MOOV ESPACO CERAMICA São 095311507077                    SP          
R030154582600010720210004705049194822   CELSO LUIZ ESTEVAM                                          172534220620210000002954500000000029545000UAlameda Porcelana, 185 AP 00000081 MOOV ESPACO CERAMICA São 095311507077                    SP          
R030154582600010720210004839664377830   GABRIELA CAMPANHOLI DA CRUZ                                 172524210620210000002470000000000024700000UAlameda Porcelana, 185 AP 00000164 MOOV ESPACO CERAMICA São 095311507077                    SP          
R030154582600010720210004935266938897   CAROLINA CAMPANHOLI DA CRUZ                                 172524210620210000002470000000000024700000UAlameda Porcelana, 185 AP 00000164 MOOV ESPACO CERAMICA São 095311507077                    SP          
R030154582600010720210005072495243991   SYLVIA CRISTINE BELLIO                                      172457260520210000006292000800000062920008UAlameda Porcelana, 185 AP 00000151 MOOV ESPACO CERAMICA São 095311507077                    SP          
R030154582600010720210005115327948862   SIMONE APARECIDA GRECO DA SILVA                             172456250520210000001356000000000013560000UAlameda Porcelana, 185 AP 00000031 MOOV ESPACO CERAMICA São 095311507077                    SP          
R030154582600010720210005213127025831   SIOMARA RITA GRECO DA SILVA LAURO                           172456250520210000001356000000000013560000UAlameda Porcelana, 185 AP 00000031 MOOV ESPACO CERAMICA São 095311507077                    SP          
R030154582600010720210005309229201847   JOSÉ LUIZ LAURO                                             172456250520210000001356000000000013560000UAlameda Porcelana, 185 AP 00000031 MOOV ESPACO CERAMICA São 095311507077                    SP          
R030154582600010720210005407255938817   SANDRO SQUADRONI                                            172456250520210000001356000000000013560000UAlameda Porcelana, 185 AP 00000031 MOOV ESPACO CERAMICA São 095311507077                    SP          
R030154582600010720210005500806575409   CAROLINE ZACARIAS GASTALDO                                  172520180620210000001667250000000016672500UAlameda Porcelana, 185 AP 00000021 MOOV ESPACO CERAMICA São 095311507077                    SP          
R030154582600010720210005691642825891   MILTON GASTALDO                                             172520180620210000001111500000000011115000UAlameda Porcelana, 185 AP 00000021 MOOV ESPACO CERAMICA São 095311507077                    SP          
R030154582600010720210005710957576870   CELIA MENDONÇA GASTALDO                                     172520180620210000001111500000000011115000UAlameda Porcelana, 185 AP 00000021 MOOV ESPACO CERAMICA São 095311507077                    SP          
R030154582600010720210005830166841870   TIAGO MENDONÇA GASTALDO                                     172520180620210000001667250000000016672500UAlameda Porcelana, 185 AP 00000021 MOOV ESPACO CERAMICA São 095311507077                    SP          
R030154582600010720210005928430151893   PAULO HENRIQUE FERRARI                                      172498310520210000006460000000000064600000UAlameda Porcelana, 185 AP 00000152 MOOV ESPACO CERAMICA São 095311507077                    SP          
R030154582600010720210006027471526858   ROSALVO AUGUSTO SILVA NETO                                  172188180220210000001113426000000008182109UAl Terracota,115 AP 00001110 SAO - GATE São Caetano do Sul S095311907077                    SP          
R030154582600010720210006130313905800   GLAUCE GRUPI ROCHA SILVA                                    172188180220210000001113426000000008182109UAl Terracota,115 AP 00001110 SAO - GATE São Caetano do Sul S095311907077                    SP          
R030154582600010720210006203319190873   JOSE ROBERTO GIUSTI MALAVASI                                172287280220210000001028580000000010285800UAl Terracota,115 AP 00000901 SAO - GATE São Caetano do Sul S095311907077                    SP          
R030154582600010720210006303556219832   CLAUDETE APARECIDA PRANDO MALAVASI                          172287280220210000001028580000000010285800UAl Terracota,115 AP 00000901 SAO - GATE São Caetano do Sul S095311907077                    SP          
R030154582600010720210006415235049861   ANA JOSEFA SEVERINO PEREIRA                                 172289280220210000001109634000000009580319UAl Terracota,115 AP 00000910 SAO - GATE São Caetano do Sul S095311907077                    SP          
R030154582600010720210006513632880832   ROGERIO APARECIDO PEREIRA                                   172289280220210000001109634000000009580319UAl Terracota,115 AP 00000910 SAO - GATE São Caetano do Sul S095311907077                    SP          
R030154582600010720210006630856726800   GABRIELLE SCHAFER VILAS BOAS GIBIN                          172314300320210000001128000000000001270000UAl Terracota,115 AP 00001418 SAO - GATE São Caetano do Sul S095311907077                    SP          
R030154582600010720210006726258571883   FERNANDO CESAR GRIGOLLI GIBIN                               172314300320210000001128000000000001270000UAl Terracota,115 AP 00001418 SAO - GATE São Caetano do Sul S095311907077                    SP          
R030154582600010720210006830856726800   GABRIELLE SCHAFER VILAS BOAS GIBIN                          172315300320210000001128000000000001270000UAl Terracota,115 AP 00001419 SAO - GATE São Caetano do Sul S095311907077                    SP          
R030154582600010720210006926258571883   FERNANDO CESAR GRIGOLLI GIBIN                               172315300320210000001128000000000001270000UAl Terracota,115 AP 00001419 SAO - GATE São Caetano do Sul S095311907077                    SP          
R030154582600010720210007030856726800   GABRIELLE SCHAFER VILAS BOAS GIBIN                          172316300320210000002256000000000002540000UAl Terracota,115 AP 00001420 SAO - GATE São Caetano do Sul S095311907077                    SP          
R030154582600010720210007117061883820   JÚLIO ANTÔNIO BELTRAMI DA SILVA                             172336310320210000001176000000000011760000UAl Terracota,115 AP 00000711 SAO - GATE São Caetano do Sul S095311907077                    SP          
R030154582600010720210007224629823883   THAIS MAGALHÃES GARCIA                                      172336310320210000001176000000000011760000UAl Terracota,115 AP 00000711 SAO - GATE São Caetano do Sul S095311907077                    SP          
R030154582600010720210007315374527894   DANIEL GIBELLI PINTO                                        172338310320210000002066640000000020666400UAl Terracota,115 AP 00001401 SAO - GATE São Caetano do Sul S095311907077                    SP          
R030154582600010720210007416264086886   OSWALDO LOURENÇO DE MOLLA NETO                              172375280420210000001137600000000011376000UAl Terracota,115 AP 00001405 SAO - GATE São Caetano do Sul S095311907077                    SP          
R030154582600010720210007526063229833   KARINA KHOURI RODRIGUES DE MOLLA                            172375280420210000001137600000000011376000UAl Terracota,115 AP 00001405 SAO - GATE São Caetano do Sul S095311907077                    SP          
R030154582600010720210007616264086886   OSWALDO LOURENÇO DE MOLLA NETO                              172376280420210000001185000000000011850000UAl Terracota,115 AP 00001406 SAO - GATE São Caetano do Sul S095311907077                    SP          
R030154582600010720210007726063229833   KARINA KHOURI RODRIGUES DE MOLLA                            172376280420210000001185000000000011850000UAl Terracota,115 AP 00001406 SAO - GATE São Caetano do Sul S095311907077                    SP          
R030154582600010720210007804941488000102M2G PARTICIPACOES E                                         173041221020210000002548000000000025480000UAl Terracota,115 AP 00001117 SAO - GATE São Caetano do Sul S095311907077                    SP          
R030154582600010720210007904941488000102M2G PARTICIPACOES E                                         173040221020210000002548000000000025480000UAl Terracota,115 AP 00001118 SAO - GATE São Caetano do Sul S095311907077                    SP          
R030154582600010720210008030387745882   IALA ALBARAM MARTINELI                                      172335310320210000002085600000000021999340UAl Terracota,115 AP 00001226 SAO - GATE São Caetano do Sul S095311907077                    SP          
R030154582600010720210008136699639870   PRISCILA CRUZ THOMACHESKY                                   172270280220210000002133000000000021330000UAl Terracota,115 AP 00001526 SAO - GATE São Caetano do Sul S095311907077                    SP          
R030154582600010720210008210415936000137HIZ                                                         173037221020210000002548000000000025480000UAl Terracota,115 AP 00001301 SAO - GATE São Caetano do Sul S095311907077                    SP          
R030154582600010720210008310415936000137HIZ                                                         173036221020210000002548000000000025480000UAl Terracota,115 AP 00001302 SAO - GATE São Caetano do Sul S095311907077                    SP          
R030154582600010720210008410415936000137HIZ                                                         173034221020210000002548000000000025480000UAl Terracota,115 AP 00001303 SAO - GATE São Caetano do Sul S095311907077                    SP          
R030154582600010720210008510415936000137HIZ                                                         173033221020210000002548000000000025480000UAl Terracota,115 AP 00001304 SAO - GATE São Caetano do Sul S095311907077                    SP          
R030154582600010720210008610415936000137HIZ                                                         173032221020210000002548000000000025480000UAl Terracota,115 AP 00001305 SAO - GATE São Caetano do Sul S095311907077                    SP          
R030154582600010720210008710415936000137HIZ                                                         173031221020210000002548000000000025480000UAl Terracota,115 AP 00001306 SAO - GATE São Caetano do Sul S095311907077                    SP          
R030154582600010720210008823229695000183TeTGM INVESTIMENTOS LTDA - ME                               173043221020210000002548000000000025480000UAl Terracota,115 AP 00001115 SAO - GATE São Caetano do Sul S095311907077                    SP          
R030154582600010720210008904268757880   DALILA BARRETO RODRIGUES                                    172112210120210000002282400000000022824000UAl Terracota,115 AP 00001403 SAO - GATE São Caetano do Sul S095311907077                    SP          
R030154582600010720210009004268757880   DALILA BARRETO RODRIGUES                                    172113210120210000002282400000000022824000UAl Terracota,115 AP 00001404 SAO - GATE São Caetano do Sul S095311907077                    SP          
R030154582600010720210009115136246871   ANDERSON LUIZ DE SOUZA                                      172334310320210000001113900000000011139000UAl Terracota,115 AP 00001203 SAO - GATE São Caetano do Sul S095311907077                    SP          
R030154582600010720210009225982092819   SANDRA APARECIDA AUGUSTO DE SOUZA                           172334310320210000001113900000000011139000UAl Terracota,115 AP 00001203 SAO - GATE São Caetano do Sul S095311907077                    SP          
R030154582600010720210009315136246871   ANDERSON LUIZ DE SOUZA                                      172332310320210000001113900000000011139000UAl Terracota,115 AP 00001204 SAO - GATE São Caetano do Sul S095311907077                    SP          
R030154582600010720210009425982092819   SANDRA APARECIDA AUGUSTO DE SOUZA                           172332310320210000001113900000000011139000UAl Terracota,115 AP 00001204 SAO - GATE São Caetano do Sul S095311907077                    SP          
R030154582600010720210009506624311894   CLOVIS BESERRA DA SILVA                                     173039221020210000001274000000000012740000UAl Terracota,115 AP 00001219 SAO - GATE São Caetano do Sul S095311907077                    SP          
R030154582600010720210009606498675802   APARECIDA GONÇALVES SIMÕES DA SILVA                         173039221020210000001274000000000012740000UAl Terracota,115 AP 00001219 SAO - GATE São Caetano do Sul S095311907077                    SP          
R030154582600010720210009710191288870   RONALDO MIRA                                                173000201020210000002548000000000025480000UAl Terracota,115 AP 00001116 SAO - GATE São Caetano do Sul S095311907077                    SP          
R030154582600010720210009838486311000185CAMAROS                                                     173053281020210000002548000000000025480000UAl Terracota,115 AP 00001119 SAO - GATE São Caetano do Sul S095311907077                    SP          
R030154582600010720210009940495030856   MARCOS VINICIUS PIAZZA AMATU                                172162310120210000003061500000000030615000UAl Terracota,115 AP 00001207 SAO - GATE São Caetano do Sul S095311907077                    SP          
R030154582600010720210010040495030856   MARCOS VINICIUS PIAZZA AMATU                                172167310120210000002213700000000022137000UAl Terracota,115 AP 00001208 SAO - GATE São Caetano do Sul S095311907077                    SP          
R030154582600010720210010131367152844   MÔNICA NOMURA ROSSMANN                                      172170310120210000003091225500000031686681URUA HEITOR PEIXOTO, 820 AP 00000034 GAFISA LIKE ACLIMAÇÃO SÃ015430017107                    SP          
R030154582600010720210010228012910802   LUIZ CARLOS PASSOS                                          172170310120210000003091225500000031686681URUA HEITOR PEIXOTO, 820 AP 00000034 GAFISA LIKE ACLIMAÇÃO SÃ015430017107                    SP          
R030154582600010720210010344377506838   MAYARA SANTOS AZEVEDO                                       172134310120210000003158500000000031585000UPRACA DOM FRANCISCO DE SOUSA, 126 AP 85B GFSA CHOICE ST AMAR047450507107                    SP          
R030154582600010720210010437027386810   FELIPE BONSENSO VENEZIANO                                   173162291120210000065144000000000652382573URUA MANOEL DA NOBREGA, 812 AP 00000121 MN15 IBIRAPUERA SAO P040010027107                    SP          
R030154582600010720210010529856597870   MARCOS FABIO LOPES DE CARVALHO                              173227171220210000002469540000000000395400URua Jose dos Reis n   600 AP 13B MOOV ESTACAO VILA PRUDENTE 031390407107                    SP          
R030154582600010720210010632099588821   KAMILA DANTAS DE OLIVEIRA                                   173227171220210000002469540000000000395400URua Jose dos Reis n   600 AP 13B MOOV ESTACAO VILA PRUDENTE 031390407107                    SP          
R030154582600010720210010711485716802   JOSE MARCELO GOIS BISPO                                     173212301120210000003387200000000004872000URua Jose dos Reis n   600 AP 71A MOOV ESTACAO VILA PRUDENTE 031390407107                    SP          
R030154582600010720210010843125699835   KARINA DOS SANTOS FRIGATTO                                  173212301120210000003387200000000004872000URua Jose dos Reis n   600 AP 71A MOOV ESTACAO VILA PRUDENTE 031390407107                    SP          
R030154582600010720210010936775462816   FELIPE JOAO CAMARGO DA SILVA                                173158261120210000006434680000000064346800URua Jose dos Reis n   600 AP 182B MOOV ESTACAO VILA PRUDENTE031390407107                    SP          
R030154582600010720210011042585654826   GUSTAVO CASTANHEIRA FERNANDES                               172873300820210000002342400000000021676897URua Jose dos Reis n   600 AP 24B MOOV ESTACAO VILA PRUDENTE 031390407107                    SP          
R030154582600010720210011140946443858   MARIANA PIRES MORGADO SILVA                                 172873300820210000002342400000000021676897URua Jose dos Reis n   600 AP 24B MOOV ESTACAO VILA PRUDENTE 031390407107                    SP          
R030154582600010720210011231468429809   KAROLYNA PIRES RAMOS                                        172814310720210000003231360000000032313818URua Jose dos Reis n   600 AP 132A MOOV ESTACAO VILA PRUDENTE031390407107                    SP          
R030154582600010720210011328362621842   PABLO ALEXANDER SOCA                                        172814310720210000003231360000000032313818URua Jose dos Reis n   600 AP 132A MOOV ESTACAO VILA PRUDENTE031390407107                    SP          
R030154582600010720210011430381803864   DANIELE TEIXEIRA DE LIMA MARQUES                            172560300620210000002697600000000027466993URua Jose dos Reis n   600 AP 12B MOOV ESTACAO VILA PRUDENTE 031390407107                    SP          
R030154582600010720210011535142899806   DANILO MARQUES DOS SANTOS                                   172560300620210000002697600000000027466993URua Jose dos Reis n   600 AP 12B MOOV ESTACAO VILA PRUDENTE 031390407107                    SP          
R030154582600010720210011646757724553   IRADINEY DE SOUSA                                           172526210620210000002428800000000025448016URua Jose dos Reis n   600 AP 193B MOOV ESTACAO VILA PRUDENTE031390407107                    SP          
R030154582600010720210011716907680530   ANTONIO LUIZ ARAUJO FERREIRA                                172526210620210000002428800000000025448016URua Jose dos Reis n   600 AP 193B MOOV ESTACAO VILA PRUDENTE031390407107                    SP          
R030154582600010720210011841930772840   ALESSANDRA JANISEVICIUS                                     172515150620210000004272000000000043885422URua Jose dos Reis n   600 AP 34A MOOV ESTACAO VILA PRUDENTE 031390407107                    SP          
R030154582600010720210011936905398896   ERICA CRISTINA TAURIZANO DOS SANTOS                         172458260520210000003218460000000004284600URua Jose dos Reis n   600 AP 172A MOOV ESTACAO VILA PRUDENTE031390407107                    SP          
R030154582600010720210012036950787820   FELIPE BERNARDO DOS SANTOS                                  172458260520210000003218460000000004284600URua Jose dos Reis n   600 AP 172A MOOV ESTACAO VILA PRUDENTE031390407107                    SP          
R030154582600010720210012103892895821   ANA RITA ALONSO DE OLIVEIRA                                 172355220420210000001824900000000018249000UAv.Duque de Caxias    61 e 73 AP 604B SMART SANTA CECILIA Sã012140007107                    SP          
R030154582600010720210012201808490851   CARLOS AMILTON DE OLIVEIRA                                  172355220420210000001824900000000018249000UAv.Duque de Caxias    61 e 73 AP 604B SMART SANTA CECILIA Sã012140007107                    SP          
R030154582600010720210012313490174852   ADRIANA BERNARDES MARINS ZAPAROLI                           173124161120210000011482109000000020466090UR JOSE MARIA LISBOA 330 AP 00000051 J330 JARDINS SAO PAULO S014230007107                    SP          
R030154582600010720210012412867660874   LUIZ CARLOS ZAPAROLI                                        173124161120210000011482109000000020466090UR JOSE MARIA LISBOA 330 AP 00000051 J330 JARDINS SAO PAULO S014230007107                    SP          
R030154582600010720210012500749863099   GUILHERME LUIS PESENTI E SILVA                              172805300720210000018837628200000194261833UR JOSE MARIA LISBOA 330 AP 00000052 J330 JARDINS SAO PAULO S014230007107                    SP          
R030154582600010720210012601359871640   LEONARDO TEIXEIRA PEREIRA                                   172834130820210000022423500000000226372705UR JOSE MARIA LISBOA 330 AP 00000122 J330 JARDINS SAO PAULO S014230007107                    SP          
R030154582600010720210012717450623862   TOSHIFUMI MURATA                                            173049271020210000010902000000000109020000UR JOSE MARIA LISBOA 330 AP 00000061 J330 JARDINS SAO PAULO S014230007107                    SP          
R030154582600010720210012835030522832   THAIS SAMPAIO MURATA                                        173049271020210000010902000000000109020000UR JOSE MARIA LISBOA 330 AP 00000061 J330 JARDINS SAO PAULO S014230007107                    SP          
R030154582600010720210012948975140881   MICAELE DA SILVA MORAIS                                     173221101220210000021994548000000103935400UR JOSE MARIA LISBOA 330 AP 00000042 J330 JARDINS SAO PAULO S014230007107                    SP          
R030154582600010720210013028966715877   ANDRE MIKIO HORI                                            172455250520210000003935148000000039370463URua Jose Homero Roxo    121 e 165 AP 73B BOSQUE MARAJOARA Sa046781057107                    SP          
R030154582600010720210013135382029822   DANIELLY MARIANO FERREIRA DE SOUZA                          172427130520210000001967574000000020287489URua Jose Homero Roxo    121 e 165 AP 204C BOSQUE MARAJOARA S046781057107                    SP          
R030154582600010720210013234876196877   IGOR FERREIRA DE SOUZA                                      172427130520210000001967574000000020287489URua Jose Homero Roxo    121 e 165 AP 204C BOSQUE MARAJOARA S046781057107                    SP          
R030154582600010720210013329744761806   ANGELA LOURENÇO DE SOUZA                                    172403300420210000004124748000000044406097URua Jose Homero Roxo    121 e 165 AP 163B BOSQUE MARAJOARA S046781057107                    SP          
R030154582600010720210013440143629816   DANIELLI BERTONI KROES                                      172190180220210000001915879600000020345066URua Jose Homero Roxo    121 e 165 AP 173D BOSQUE MARAJOARA S046781057107                    SP          
R030154582600010720210013522489168843   FELIPE GOUVEIA MARCHESE                                     172190180220210000001915879600000020345066URua Jose Homero Roxo    121 e 165 AP 173D BOSQUE MARAJOARA S046781057107                    SP          
R030154582600010720210013636471624859   GUILHERME CASTELLUCCI LEAL                                  172961300920210000002970000000000029700000URua Jose Homero Roxo    121 e 165 AP 91D BOSQUE MARAJOARA Sa046781057107                    SP          
R030154582600010720210013732506913807   DEBORA CRISTINA CASTELLUCCI                                 172961300920210000002970000000000029700000URua Jose Homero Roxo    121 e 165 AP 91D BOSQUE MARAJOARA Sa046781057107                    SP          
R030154582600010720210013805540816870   LUIZ ANTONIO SPREAFICO                                      172491310520210000000498946100000004989460URua Paulistânia, 215 AP 5P SMART VILA MADALENA São Paulo SP 054400007107                    SP          
R030154582600010720210013905540816870   LUIZ ANTONIO SPREAFICO                                      172845240820210000000498946100000004989461URua Paulistânia, 215 AP 6P SMART VILA MADALENA São Paulo SP 054400007107                    SP          
R030154582600010720210014021656792818   LUCIANO FROZONI PEREIRA                                     173339311220210000012454958000000000000000URua Paulistânia, 215 AP 00001512 SMART VILA MADALENA São Pau054400007107                    SP          
R030154582600010720210014106107623892   LUIZ FERNANDO RODRIGUES PINTO JUNIO                         172954300920210000003216000000000032160000URua Antonio das Chagas, 162 AP 00000162 GAFISA LIKE ALTO DA 047140007107                    SP          
R030154582600010720210014206538519873   ANDREA CHIARATTI                                            172954300920210000003216000000000032160000URua Antonio das Chagas, 162 AP 00000162 GAFISA LIKE ALTO DA 047140007107                    SP          
R030154582600010720210014326565248818   ANDRE ASSAD GENGA                                           173301311220210000054000010000000000000000UAv. Professor Frederico Herman JR AP 00000041 067 HERMANN JU054590107107                    SP          
R030154582600010720210014413249727857   LUIZ FERNANDO VALENTE DE PAIVA                              172578300620210000057600010000000500000000UAv. Professor Frederico Herman JR AP 00000091 067 HERMANN JU054590107107                    SP          
R030154582600010720210014513249727857   LUIZ FERNANDO VALENTE DE PAIVA                              172407300420210000050718000000000507180000UAv. Professor Frederico Herman JR AP 00000031 067 HERMANN JU054590107107                    SP          
R030154582600010720210014634714915894   HELOISE REOLON FERREIRA                                     172166310120210000026832000000000272313374UAv. Professor Frederico Herman JR AP 00000051 067 HERMANN JU054590107107                    SP          
R030154582600010720210014735173712899   FRANCISCO DE ASSIS FERREIRA FILHO                           172166310120210000026832000000000272313374UAv. Professor Frederico Herman JR AP 00000051 067 HERMANN JU054590107107                    SP          
R030154582600010720210014829080915858   LIGIA PAULA ARAUJO CAMARA                                   172555290620210000001517274000000015971038UAv I de S 1137 x R S A e R B G de O AP 00000214 MOOV FREGUES027160007107                    SP          
R030154582600010720210014906444985870   ELISABETE DA SILVA KIYUNA                                   172784300620210000003967740000000041334707UAv I de S 1137 x R S A e R B G de O AP 00000187 MOOV FREGUES027160007107                    SP          
R030154582600010720210015052872556834   KANSUKE OYADOMARI                                           172798260720210000002032014800000020320148UAv I de S 1137 x R S A e R B G de O AP 00000142 MOOV FREGUES027160007107                    SP          
R030154582600010720210015101175169889   ALICE MICHIKO HASHIMOTO OYADOMARI                           172798260720210000002032014800000020320148UAv I de S 1137 x R S A e R B G de O AP 00000142 MOOV FREGUES027160007107                    SP          
R030154582600010720210015262578103704   PAULO RICARDO ATHAYDE DE MORAES                             172803290720210000002180800000000021808000UAv I de S 1137 x R S A e R B G de O AP 00000192 MOOV FREGUES027160007107                    SP          
R030154582600010720210015317545943287   HOLNEY ANTONIO MENDES                                       172803290720210000002180800000000021808000UAv I de S 1137 x R S A e R B G de O AP 00000192 MOOV FREGUES027160007107                    SP          
R030154582600010720210015438234368800   HENRIQUE MEDEIROS DE ABREU                                  172806310720210000003840348000000038977959UAv I de S 1137 x R S A e R B G de O AP 00000191 MOOV FREGUES027160007107                    SP          
R030154582600010720210015531286068894   JULIANA LIMA BARBOSA                                        172847240820210000001880000000000019143316UAv I de S 1137 x R S A e R B G de O AP 00000061 MOOV FREGUES027160007107                    SP          
R030154582600010720210015621964635829   GILSON ANDRE DA SILVA                                       172847240820210000001880000000000019143316UAv I de S 1137 x R S A e R B G de O AP 00000061 MOOV FREGUES027160007107                    SP          
R030154582600010720210015732930161892   JULIANA BATISTA DE SOUZA                                    172891130920210000001995000000000017592612UAv I de S 1137 x R S A e R B G de O AP 00000092 MOOV FREGUES027160007107                    SP          
R030154582600010720210015835025717833   GUILHERME SILVA GAMBA                                       172891130920210000001995000000000017592612UAv I de S 1137 x R S A e R B G de O AP 00000092 MOOV FREGUES027160007107                    SP          
R030154582600010720210015940686394852   EDILSON OLIVEIRA SILVA JUNIOR                               173181301120210000001484800000000013603826UAv I de S 1137 x R S A e R B G de O AP 00000134 MOOV FREGUES027160007107                    SP          
R030154582600010720210016044120065812   ELIS STEFANI FURTADO DOS SANTOS                             173181301120210000001484800000000013603826UAv I de S 1137 x R S A e R B G de O AP 00000134 MOOV FREGUES027160007107                    SP          
R030154582600010720210016111481487876   IRINEU RODRIGUES RAMOS                                      173215301120210000001563680000000000536800UAv I de S 1137 x R S A e R B G de O AP 00000244 MOOV FREGUES027160007107                    SP          
R030154582600010720210016225315806898   IRIS CABRAL RAMOS                                           173215301120210000001563680000000000536800UAv I de S 1137 x R S A e R B G de O AP 00000244 MOOV FREGUES027160007107                    SP          
R030154582600010720210016330589567896   EDVANIA BRITO CORDEIRO SENA                                 173278291220210000001809600000000007096000UAv I de S 1137 x R S A e R B G de O AP 00000037 MOOV FREGUES027160007107                    SP          
R030154582600010720210016360778709515   LUIS CEZAR DE ARAUJO SENA                                   173278291220210000001809600000000007096000UAv I de S 1137 x R S A e R B G de O AP 00000037 MOOV FREGUES027160007107                    SP          
R030154582600010720210016542699624888   ELAINE PINHEIRO DOS REIS                                    173280291220210000001896000000000002660000UAv I de S 1137 x R S A e R B G de O AP 00000182 MOOV FREGUES027160007107                    SP          
R030154582600010720210016639528958818   ADRIANO DANTAS MOREIRA                                      173280291220210000001896000000000002660000UAv I de S 1137 x R S A e R B G de O AP 00000182 MOOV FREGUES027160007107                    SP          
R030154582600010720210016727684856839   CARLOS AUGUSTO PEREIRA CAMARA                               172555290620210000001517274000000015971038UAv I de S 1137 x R S A e R B G de O AP 00000214 MOOV FREGUES027160007107                    SP          
R030154582600010720210016822644783810   ERBELY PERICLES DA SILVA                                    172522180620210000001645000000000017515444UAv I de S 1137 x R S A e R B G de O AP 00000195 MOOV FREGUES027160007107                    SP          
R030154582600010720210016941866091875   IDAIANE SOUZA DOS SANTOS                                    172522180620210000001645000000000017515444UAv I de S 1137 x R S A e R B G de O AP 00000195 MOOV FREGUES027160007107                    SP          
R030154582600010720210017022824567856   NATHALIA DA SILVA SELLIS                                    172499310520210000003485520000000035184331UAv I de S 1137 x R S A e R B G de O AP 00000216 MOOV FREGUES027160007107                    SP          
R030154582600010720210017131448405807   ADRIANA DE CASTRO                                           172475310520210000002951968000000031649165UAv I de S 1137 x R S A e R B G de O AP 00000054 MOOV FREGUES027160007107                    SP          
R030154582600010720210017228653767886   KATIA RIBEIRO PEREIRA LIMA                                  172463270520210000003147360000000032051859UAv I de S 1137 x R S A e R B G de O AP 00000136 MOOV FREGUES027160007107                    SP          
R030154582600010720210017328346635800   CARLOS EDUARDO GENEROSO RIBEIRO                             172420120520210000004048580000000041861996UAv I de S 1137 x R S A e R B G de O AP 00000201 MOOV FREGUES027160007107                    SP          
R030154582600010720210017422575756871   EDUARDO BRANDÃO IONTA                                       172352190420210000001777500000000018291050UAv I de S 1137 x R S A e R B G de O AP 00000041 MOOV FREGUES027160007107                    SP          
R030154582600010720210017538535783814   FERNANDA MONTEIRO DENADAI                                   172352190420210000001777500000000018291050UAv I de S 1137 x R S A e R B G de O AP 00000041 MOOV FREGUES027160007107                    SP          
R030154582600010720210017601899565000115EMPORIO                                                     172306300320210000003744600000000044062101UAv I de S 1137 x R S A e R B G de O AP 00000107 MOOV FREGUES027160007107                    SP          
R030154582600010720210017705483920805   APARECIDA MARILDES DE AZEVEDO                               172325310320210000003235200000000033233284UAv I de S 1137 x R S A e R B G de O AP 00000076 MOOV FREGUES027160007107                    SP          
R030154582600010720210017814277593836   GERISNALDO VASCONCELOS RAMOS                                172229280220210000002969600000000029696000UAv I de S 1137 x R S A e R B G de O AP 00000074 MOOV FREGUES027160007107                    SP          
R030154582600010720210017922250657807   KEITH KAUNDA DE PAULA MONTEIRO                              172227280220210000001791580000000018556435UAv I de S 1137 x R S A e R B G de O AP 00000062 MOOV FREGUES027160007107                    SP          
R030154582600010720210018031316500870   MARIA DANIELA FONSECA DE PAULA MONT                         172227280220210000001791580000000018556435UAv I de S 1137 x R S A e R B G de O AP 00000062 MOOV FREGUES027160007107                    SP          
R030154582600010720210018124042536204   HARENILCE MADEIRA MACEDO FARIAS                             172203230220210000001620240000000016671831UAv I de S 1137 x R S A e R B G de O AP 00000213 MOOV FREGUES027160007107                    SP          
R030154582600010720210018224088277287   ADALCI DA CRUZ FARIAS                                       172203230220210000001620240000000016671831UAv I de S 1137 x R S A e R B G de O AP 00000213 MOOV FREGUES027160007107                    SP          
R030154582600010720210018309413078831   ALEXANDRE BELOPEDE                                          172155310120210000003708900000000037089000UAv I de S 1137 x R S A e R B G de O AP 00000137 MOOV FREGUES027160007107                    SP          
R030154582600010720210018400926734571   MARCELA LEANDRO CRUZ SANTOS                                 172117280120210000001514265000000015142650UAv I de S 1137 x R S A e R B G de O AP 00000185 MOOV FREGUES027160007107                    SP          
R030154582600010720210018501667177540   JADIEL SANTOS                                               172117280120210000001514265000000015142650UAv I de S 1137 x R S A e R B G de O AP 00000185 MOOV FREGUES027160007107                    SP          
T9                                                                                                    
