DIMOB                                                                                                                                                                                                                                                                                                                                                                                 
R010772240300019320210000000000000000000000GAFISA VENDAS INTERMEDIACAO IMOBILIARIA LTDA                28221969826AV Juscelino Kubitschek 1830 Vila Nova Conceicao                                                                        SP7107                              
R040772240300019320210000101667177540   JADIEL SANTOS                                               01545826000107GAFISA S.A.                                                 249525010120210000030285300 0000000064300 UAv. Inajar de Souza 1137 AP 185 MOOV FREGUESIA              054430027107                    SP          
R040772240300019320210000228580437873   ANDREA SILVEIRA CARVALHO                                    12707231000119GAFISA SPE-128 EMP.                                         249523010120210000087702000 0000000933000 UALAMEDA PAINEIRA VE S/N, LT 1 AP 31 BELVEDERE LORIAN BOULEV 060303196789                    SP          
R040772240300019320210000322765132844   SULIVAN FRANCISCO DE ALMEIDA GONCAL                         12707231000119GAFISA SPE-128 EMP.                                         249519010120210000053956000 0000000574000 UALAMEDA PAINEIRA VE S/N, LT 1 AP 15 BELVEDERE LORIAN BOULEV 060303196789                    SP          
R040772240300019320210000435264707820   ERICK ALENCAR DOS SANTOS                                    01545826000107GAFISA S.A.                                                 249532010120210000025565576 0000000271974 URua Antonieta 602 AP 95 MOOV PARQUE MAIA                    070801206477                    SP          
R040772240300019320210000503273593822   ELÂINE APARECIDA                                            01545826000107GAFISA S.A.                                                 249537010120210000082530196 0000000877981 URua Tuiuti 626 AP 174 SCENA TATUAPE                         030810157107                    SP          
R040772240300019320210000612698502886   MARCELO CASTRO                                              01545826000107GAFISA S.A.                                                 249526010120210000034780000 0000000370000 URua Antonieta 602 AP 112 MOOV PARQUE MAIA                   070801206477                    SP          
R040772240300019320210000704268757880   DALILA BARRETO RODRIGUES                                    01545826000107GAFISA S.A.                                                 249511010120210000022824000 0000000048000 UAlameda Caulin 35 AP 1403 SAO - GATE                        095311957077                    SP          
R040772240300019320210000804268757880   DALILA BARRETO RODRIGUES                                    01545826000107GAFISA S.A.                                                 249512010120210000022824000 0000000048000 UAlameda Caulin 35 AP 1404 SAO - GATE                        095311957077                    SP          
R040772240300019320210000934941236831   LIVIA DO VALLE COSTA MARIA                                  12707231000119GAFISA SPE-128 EMP.                                         249529010120210000088946970 0000000741225 UALAMEDA PAINEIRA VE S/N, LT 1 AP 183 BELVEDERE LORIAN BOULE 060303196789                    SP          
R040772240300019320210001030246421886   MEIRE BARBOZA DE SOUZA                                      34425790000179I240 SERRA DE JAIRE SPE - EMPR                              249551010120210000027559500 0000000261090 URUA SERRA DE JAIRÉ 78 AP 603 MOOV BELÉM                     031750107107                    SP          
R040772240300019320210001140495030856   MARCOS VINICIUS PIAZZA AMATU                                01545826000107GAFISA S.A.                                                 249566010120210000030615000 0000000065000 UAlameda Caulin 35 AP 1207 SAO - GATE                        095311957077                    SP          
R040772240300019320210001240495030856   MARCOS VINICIUS PIAZZA AMATU                                01545826000107GAFISA S.A.                                                 249567010120210000022137000 0000000047000 UAlameda Caulin 35 AP 1208 SAO - GATE                        095311957077                    SP          
R040772240300019320210001312637336897   ADRIANO MEDICI                                              01545826000107GAFISA S.A.                                                 249559010120210000075887520 0000000161120 URua Tuiuti 626 AP 172 SCENA TATUAPE                         030810157107                    SP          
R040772240300019320210001428306399870   ANA PAULA PINHEIRO ABOU ROUJAILI                            01545826000107GAFISA S.A.                                                 249530010120210000081513600 0000000679280 URua Tuiuti 626 AP 162 SCENA TATUAPE                         030810157107                    SP          
R040772240300019320210001515319071809   JANETE LUZINETE DE SOUZA                                    01545826000107GAFISA S.A.                                                 249548010120210000025839344 0000000274886 URua Antonieta 602 AP 144 MOOV PARQUE MAIA                   070801206477                    SP          
R040772240300019320210001601455629804   ANGELO BULZACCHELLI                                         34425758000193I230 CORONEL MURSA SPE - EMPRE                              249547010120210000014194000 0000000151000 URUA CORONEL MURSA 66 AP 176A MOOV ESTACAO BRAS              030430507107                    SP          
R040772240300019320210001737513617821   FLÁVIA BELON MIGUEL                                         01545826000107GAFISA S.A.                                                 249571010120210000026489040 0000000056240 URua Antonieta 602 AP 65 MOOV PARQUE MAIA                    070801206477                    SP          
R040772240300019320210001829615055859   OSVALDO MENDES JUNIOR                                       01545826000107GAFISA S.A.                                                 249570010120210000069698580 0000000147980 URua Tuiuti 626 AP 63 SCENA TATUAPE                          030810157107                    SP          
R040772240300019320210001921247136809   NILVA HISAE MIYAGUTI BUIM                                   12707231000119GAFISA SPE-128 EMP.                                         249531010120210000086664000 0000000184000 UALAMEDA PAINEIRA VE S/N, LT 1 AP 21 BELVEDERE LORIAN BOULEV 060303196789                    SP          
R040772240300019320210002083527419187   ROMULO BEZERRA LIMA                                         15334737000118UPCON CHEZ SPE 7 EMP IMOB LTDA                              249579010120210000187180023 0000002410800 UAv. Das Nações 12399 AP 72 CHEZ PERDIZES                    045780007107                    SP          
R040772240300019320210002119530045808   EDUARDO YOSHIOKA                                            35152014000105NUOVE DIREZIONI SPE EMPREENDIM                              249569010120210000220800000 0000002530000 UAv Pres Juscelino Kubitschek 1 AP 42 NORMANDIE MOEMA        045430007107                    SP          
R040772240300019320210002223028942860   VANESSA ALMEIDA LINO ALVES                                  12707231000119GAFISA SPE-128 EMP.                                         249557010120210000090873600 0000000757280 UALAMEDA PAINEIRA VE S/N, LT 1 AP 242 BELVEDERE LORIAN BOULE 060303196789                    SP          
R040772240300019320210002361256854468   MANOEL AUGUSTO FERREIRA                                     01545826000107GAFISA S.A.                                                 249585010120210000028200000 0000000300000 URua Antonieta 602 AP 204 MOOV PARQUE MAIA                   070801206477                    SP          
R040772240300019320210002442342696892   JHONNY ERISON FLORES TELLO                                  01545826000107GAFISA S.A.                                                 249577010120210000073329400 0000000819105 URua Tuiuti 626 AP 63 SCENA TATUAPE                          030810157107                    SP          
R040772240300019320210002507984805997   BRUNO DE PAULA SEUS                                         34425758000193I230 CORONEL MURSA SPE - EMPRE                              249541010120210000022934400 0000000191120 URUA CORONEL MURSA 66 AP 102A MOOV ESTACAO BRAS              030430507107                    SP          
R040772240300019320210002666411440891   JESUS ANTONIO DE PAIVA                                      12707231000119GAFISA SPE-128 EMP.                                         249549010120210000085975000 0000000814500 UALAMEDA PAINEIRA VE S/N, LT 1 AP 222 BELVEDERE LORIAN BOULE 060303196789                    SP          
R040772240300019320210002745787072880   JAQUELINE DA SILVA CLEM                                     01545826000107GAFISA S.A.                                                 249584010120210000025678920 0000000054520 URua Antonieta 602 AP 66 MOOV PARQUE MAIA                    070801206477                    SP          
R040772240300019320210002800198048815   JOAO CALDERON PUERTA                                        01545826000107GAFISA S.A.                                                 249578010120210000067948950 0000000142900 URua Tuiuti 626 AP 82 SCENA TATUAPE                          030810157107                    SP          
R040772240300019320210002929900180852   DANIEL GOBI LOPES                                           01545826000107GAFISA S.A.                                                 249583010120210000081154899 0000000863350 URua Tuiuti 626 AP 164 SCENA TATUAPE                         030810157107                    SP          
R040772240300019320210003035173712899   FRANCISCO DE ASSIS FERREIRA FILHO                           01545826000107GAFISA S.A.                                                 249520010120210000536640000 0000004472000 URUA NATINGUI 1518 AP 51 067 HERMANN JUNIOR                  054430027107                    SP          
R040772240300019320210003130879112832   ELTON FERREIRA DE JESUS                                     01545826000107GAFISA S.A.                                                 249540010120210000025201400 0000000281505 URua Antonieta 602 AP 24 MOOV PARQUE MAIA                    070801206477                    SP          
R040772240300019320210003250183357850   GABRIELA MORILLO BONI                                       34425790000179I240 SERRA DE JAIRE SPE - EMPR                              249597010120210000019452300 0000000041300 URUA SERRA DE JAIRÉ 78 AP 516 MOOV BELÉM                     031750107107                    SP          
R040772240300019320210003312601526000106MGS                                                         12707231000119GAFISA SPE-128 EMP.                                         249539010120210000089184000 0000000743200 UALAMEDA PAINEIRA VE S/N, LT 1 AP 233 BELVEDERE LORIAN BOULE 060303196789                    SP          
R040772240300019320210003412601526000106MGS                                                         12707231000119GAFISA SPE-128 EMP.                                         249538010120210000088416000 0000000736800 UALAMEDA PAINEIRA VE S/N, LT 1 AP 232 BELVEDERE LORIAN BOULE 060303196789                    SP          
R040772240300019320210003536145188847   CAMILLA MARJORIE RIBEIRO SANGUIN                            17697518000129ATINS EMPREE IMOB LTDA                                      249590010120210000108330000 0000000230000 UAv. Juscelino Kubitsche 1830, AP 63 044 VILA RICA           045439007107                    SP          
R040772240300019320210003629730727864   RODRIGO RAMOS CELETE                                        12707231000119GAFISA SPE-128 EMP.                                         249572010120210000056256000 0000000468800 UALAMEDA PAINEIRA VE S/N, LT 1 AP 234 BELVEDERE LORIAN BOULE 060303196789                    SP          
R040772240300019320210003734706005892   RUDSON ANTONIO NEGRÃO RIBEIRO SOUZA                         12707231000119GAFISA SPE-128 EMP.                                         249610010120210000076704000 0000000856800 UALAMEDA PAINEIRA VE S/N, LT 1 AP 222 BELVEDERE LORIAN BOULE 060303196789                    SP          
R040772240300019320210003834088364856   THIAGO CHAVES GOMES DE ASSIS                                01545826000107GAFISA S.A.                                                 249607010120210000079437030 0000000167060 URua Tuiuti 626 AP 151 SCENA TATUAPE                         030810157107                    SP          
R040772240300019320210003927197150850   ALVARO LUCASECHI LOPES                                      35152014000105NUOVE DIREZIONI SPE EMPREENDIM                              249620010120210000194111190 0000000404820 UAv Pres Juscelino Kubitschek 1 AP 61 NORMANDIE MOEMA        045430007107                    SP          
R040772240300019320210004022763750869   GABRIEL LEITE NERES                                         11004776000104CONSORCIO JARDINS DA BARRA II                               249270010120210000082532000 0000000298520 UAV MARQUES DE SÃO VICENTE 2860 AP 161 MARQUES 2900          050360407107                    SP          
R040772240300019320210004128118891836   RODRIGO JULIANO DINI                                        11004776000104CONSORCIO JARDINS DA BARRA II                               249368010120210000042237720 0000000131868 UAV MARQUES DE SÃO VICENTE 2860 AP 2106 BARRA VISTA          050360407107                    SP          
R040772240300019320210004236632633803   Camila Aira Marques da silva                                11004776000104CONSORCIO JARDINS DA BARRA II                               249437010120210000042142590 0000000122711 UAV MARQUES DE SÃO VICENTE 2860 AP 1406 BARRA VISTA          050360407107                    SP          
R040772240300019320210004335710663832   JULIANA MIDORI MIYAZAKI                                     01545826000107GAFISA S.A.                                                 249598010120210000027398310 0000000057620 URua Antonieta 602 AP 96 MOOV PARQUE MAIA                    070801206477                    SP          
R040772240300019320210004475576562887   MARLENE APARECIDA CASSOLI FERRAZ                            01545826000107GAFISA S.A.                                                 249582010120210000025380000 0000000283500 URua Antonieta 602 AP 133 MOOV PARQUE MAIA                   070801206477                    SP          
R040772240300019320210004533774532885   THIAGO FELIPE DA COSTA                                      01545826000107GAFISA S.A.                                                 249595010120210000073790000 0000000824250 URua Tuiuti 626 AP 102 SCENA TATUAPE                         030810157107                    SP          
R040772240300019320210004628012910802   LUIZ CARLOS PASSOS                                          01545826000107GAFISA S.A.                                                 249624010120210000061824510 0000000130020 URUA HEITOR PEIXOTO 808 AP 34 GAFISA LIKE ACLIMAÇÃO          015430017107                    SP          
R040772240300019320210004738553414000   ARTEMIO GOTZ                                                09072524000243SPE PARQUE ECOVILLE                                         249599010120210000035512500 0000000175000 URUA DEPUTADO HEITOR ALENCAR 43 AP 24 PARQUE ECOVILLE        812803407535                    PR          
R040772240300019320210004804554819540   PAMILA SANNY SOUZA RIOS                                     09072524000243SPE PARQUE ECOVILLE                                         249625010120210000048770500 0000000115000 URUA DEPUTADO HEITOR ALENCAR 43 AP 127 PARQUE ECOVILLE       812803407535                    PR          
R040772240300019320210004930379606801   MARCUS CEZAR RECCO GONSALLES                                01545826000107GAFISA S.A.                                                 249608010120210000128064900 0000000271900 URUA AFONSO DE FREITAS 75 AP 103 UPSIDE PARAISO              040060507107                    SP          
R040772240300019320210005040475072880   DANIELE PREZA FRANCISCHETTI                                 01545826000107GAFISA S.A.                                                 249558010120210000027542000 0000000307650 URua Antonieta 602 AP 204 MOOV PARQUE MAIA                   070801206477                    SP          
R040772240300019320210005105113986895   EDER RODRIGUES CHICA                                        01545826000107GAFISA S.A.                                                 249592010120210000027289740 0000000057940 URua Antonieta 602 AP 145 MOOV PARQUE MAIA                   070801206477                    SP          
R040772240300019320210005209413078831   ALEXANDRE BELOPEDE                                          01545826000107GAFISA S.A.                                                 249627010120210000037089000 0000000078000 UAv. Inajar de Souza 1137 AP 137 MOOV FREGUESIA              054430027107                    SP          
R040772240300019320210005329132306873   RODRIGO PETRUCCI GALAFATI                                   01545826000107GAFISA S.A.                                                 249629010120210000075129000 0000000158000 URua Tuiuti 626 AP 154 SCENA TATUAPE                         030810157107                    SP          
R040772240300019320210005410689057865   ANTÔNIO ELISMAR BEZZERA                                     01545826000107GAFISA S.A.                                                 249630010120210000074144820 0000000157420 URua Tuiuti 626 AP 201 SCENA TATUAPE                         030810157107                    SP          
R040772240300019320210005598966979815   PALMIRA MARIA MORENO FEZI                                   01545826000107GAFISA S.A.                                                 249613010120210000023904000 0000000199200 URua Antonieta 602 AP 23 MOOV PARQUE MAIA                    070801206477                    SP          
R040772240300019320210005627471526858   ROSALVO AUGUSTO SILVA NETO                                  01545826000107GAFISA S.A.                                                 249654010220210000022268520 0000000044631 UAlameda Caulin 35 AP 1110 SAO - GATE                        095311957077                    SP          
R040772240300019320210005732503975801   MARCELO GALVÃO DE SOUSA                                     01545826000107GAFISA S.A.                                                 249648010220210000025286000 0000000215200 URua Antonieta 602 AP 24 MOOV PARQUE MAIA                    070801206477                    SP          
R040772240300019320210005838197337870   JOYCE FEITOSA MORENO                                        01545826000107GAFISA S.A.                                                 249649010220210000027260000 0000000232000 URua Antonieta 602 AP 136 MOOV PARQUE MAIA                   070801206477                    SP          
R040772240300019320210005940946299803   ANA LÚCIA ALCARPE                                           01545826000107GAFISA S.A.                                                 249656010220210000107160000 0000001140000 URua Tuiuti 626 AP 13 SCENA TATUAPE                          030810157107                    SP          
R040772240300019320210006028376625004   ALMIR JOSE PERETTO                                          35152014000105NUOVE DIREZIONI SPE EMPREENDIM                              249591010220210000153220000 0000001793000 UAv Pres Juscelino Kubitschek 1 AP 134 NORMANDIE MOEMA       045430007107                    SP          
R040772240300019320210006122036597858   RENATA SANTANA PEREIRA                                      35152014000105NUOVE DIREZIONI SPE EMPREENDIM                              249640010220210000231014400 0000002580480 UAv Pres Juscelino Kubitschek 1 AP 41 NORMANDIE MOEMA        045430007107                    SP          
R040772240300019320210006237630359829   DANILO SAES CORREA DA SILVA                                 01545826000107GAFISA S.A.                                                 249668010220210000026320000 0000000224000 URua Antonieta 602 AP 66 MOOV PARQUE MAIA                    070801206477                    SP          
R040772240300019320210006305969390607   ALMICHAELA SANTOS                                           01545826000107GAFISA S.A.                                                 249650010220210000195762000 0000000392350 UR VIEIRA DE ALMEIDA 550 AP 282 GAFISA SQUARE IPIRANGA       046280407107                    SP          
R040772240300019320210006412457860750   THIAGO CORREIA BARROS                                       01545826000107GAFISA S.A.                                                 249643010220210000035086350 0000000111150 UESTRADA DO BANANAL 641 AP 405 TODAY MODERN RESIDENCES       227500136001                    RJ          
R040772240300019320210006522489168843   FELIPE GOUVEIA MARCHESE                                     01545826000107GAFISA S.A.                                                 249671010220210000038317592 0000000076797 UAVENIDA INTERLAGOS 1740 AP 173D BOSQUE MARAJOARA            046600027107                    SP          
R040772240300019320210006680250530082   RODRIGO RECH BARCELOS                                       01545826000107GAFISA S.A.                                                 249628010220210000115855080 0000000232199 UR VIEIRA DE ALMEIDA 550 AP 23 GAFISA SQUARE IPIRANGA        046280407107                    SP          
R040772240300019320210006727215963810   CLEBER FREDERICO                                            01545826000107GAFISA S.A.                                                 249667010220210000027260000 0000000290000 URua Antonieta 602 AP 155 MOOV PARQUE MAIA                   070801206477                    SP          
R040772240300019320210006810116462850   ROBERTO MARTINS SANBRANA                                    01545826000107GAFISA S.A.                                                 249670010220210000081592000 0000000868000 URua Tuiuti 626 AP 194 SCENA TATUAPE                         030810157107                    SP          
R040772240300019320210006920005168821   DANILO LUIS DAMASCENO                                       12707231000119GAFISA SPE-128 EMP.                                         249680010220210000091747440 0000000183882 UALAMEDA PAINEIRA VE S/N, LT 1 AP 182 BELVEDERE LORIAN BOULE 060303196789                    SP          
R040772240300019320210007091603234853   SERGIO AMATUZZI                                             12707231000119GAFISA SPE-128 EMP.                                         249652010220210000058387320 0000000117021 UALAMEDA PAINEIRA VE S/N, LT 1 AP 266 BELVEDERE LORIAN BOULE 060303196789                    SP          
R040772240300019320210007136674731846   JORGE CARVALHO DOS SANTOS JUNIOR                            01545826000107GAFISA S.A.                                                 249683010220210000079344000 0000000619875 URua Tuiuti 626 AP 191 SCENA TATUAPE                         030810157107                    SP          
R040772240300019320210007215302637863   IVAN CESAR THIESEN                                          01545826000107GAFISA S.A.                                                 249662010220210000037051000 0000000104675 URua Antonieta 602 AP 132 MOOV PARQUE MAIA                   070801206477                    SP          
R040772240300019320210007383700471815   WILTON JOSE DA LUZ                                          35152014000105NUOVE DIREZIONI SPE EMPREENDIM                              249692010220210000215739400 0000002409855 UAv Pres Juscelino Kubitschek 1 AP 31 NORMANDIE MOEM0A       045430007107                    SP          
R040772240300019320210007422898430838   RODRIGO IAZZETTI VENTURINI                                  01545826000107GAFISA S.A.                                                 249676010220210000079358880 0000000619991 URua Tuiuti 626 AP 201 SCENA TATUAPE                         030810157107                    SP          
R040772240300019320210007598966979815   PALMIRA MARIA MORENO FEZI                                   01545826000107GAFISA S.A.                                                 249686010220210000024000000 0000000187500 U Rua Antonieta 602 AP 13 MOOV PARQUE MAIA                   070801206477                    SP          
R040772240300019320210007650423487949   JOSE ADILSON DO NASCIMENTO                                  09072524000243SPE PARQUE ECOVILLE                                         249698010220210000053032000 0000000360000 URUA DEPUTADO HEITOR ALENCAR 43 AP 177 PARQUE ECOVILLE       812803407535                    PR          
R040772240300019320210007724088277287   ADALCI DA CRUZ FARIAS                                       01545826000107GAFISA S.A.                                                 249704010220210000032404800 0000000068800 UAv. Inajar de Souza 1137 AP 213 MOOV FREGUESIA              054430027107                    SP          
R040772240300019320210007813035790817   VALTER CATARINO EVANGELISTA                                 01545826000107GAFISA S.A.                                                 249694010220210000025474000 0000000216800 U Rua Antonieta 602 AP 65 MOOV PARQUE MAIA                   070801206477                    SP          
R040772240300019320210007903137892589   SILVIA ROCHA DE OLIVEIRA ALONSO                             12707231000119GAFISA SPE-128 EMP.                                         249674010220210000092107680 0000000330344 UALAMEDA PAINEIRA VE S/N, LT 1 AP 252 BELVEDERE LORIAN BOULE 060303196789                    SP          
R040772240300019320210008080943071887   LUIZ ALBERTO HIRSCH                                         12707231000119GAFISA SPE-128 EMP.                                         249702010220210000056470800 0000000600753 UALAMEDA PAINEIRA VE S/N, LT 1 AP 274 BELVEDERE LORIAN BOULE 060303196789                    SP          
R040772240300019320210008122880981808   EDNA CUSTODIO                                               01545826000107GAFISA S.A.                                                 249709010220210000025920000 0000000202500 U Rua Antonieta 602 AP 153 MOOV PARQUE MAIA                  070801206477                    SP          
R040772240300019320210008210843010000142WORKTRADE EMPREENDIMENTOS                                   35152014000105NUOVE DIREZIONI SPE EMPREENDIM                              249690010220210000227905000 0000002698875 UAv Pres Juscelino Kubitschek 1 AP 83 NORMANDIE MOEMA        045430007107                    SP          
R040772240300019320210008307842859850   ALECSANDRO RODRIGUES                                        01545826000107GAFISA S.A.                                                 249715010220210000026419200 0000000206400 U Rua Antonieta 602 AP 164 MOOV PARQUE MAIA                  070801206477                    SP          
R040772240300019320210008427189923870   KIRK ALVES NUNES                                            01545826000107GAFISA S.A.                                                 249707010220210000076102400 0000000809600 URua Tuiuti 626 AP 202 SCENA TATUAPE                         030810157107                    SP          
R040772240300019320210008543152742835   BEATRIZ DE ABREU KONNO                                      01545826000107GAFISA S.A.                                                 249573010220210000027983800 0000000312585 U Rua Antonieta 602 AP 206 MOOV PARQUE MAIA                  070801206477                    SP          
R040772240300019320210008601362697885   LAZARO WALDEMAR STIPE                                       01545826000107GAFISA S.A.                                                 249713010220210000025850000 0000000275000 U Rua Antonieta 602 AP 134 MOOV PARQUE MAIA                  070801206477                    SP          
R040772240300019320210008716806741886   ANDRÉA LIRANÇO ARANTES                                      12707231000119GAFISA SPE-128 EMP.                                         249720010220210000085339240 0000000241097 UALAMEDA PAINEIRA VE S/N, LT 1 AP 13 BELVEDERE LORIAN BOULEV 060303196789                    SP          
R040772240300019320210008833696561835   LEONARDO DE SIQUEIRA LIMA                                   01545826000107GAFISA S.A.                                                 249660010220210000083472000 0000000888000 URua Tuiuti 626 AP 184 SCENA TATUAPE                         030810157107                    SP          
R040772240300019320210008935234654869   LUIZ OTAVIO LOPES                                           01545826000107GAFISA S.A.                                                 249726010220210000038352000 0000000408000 U Rua Antonieta 602 AP 151 MOOV PARQUE MAIA                  070801206477                    SP          
R040772240300019320210009027259322896   ALEXANDRE SPREGACINI                                        12707231000119GAFISA SPE-128 EMP.                                         249710010220210000086950000 0000000925000 UALAMEDA PAINEIRA VE S/N, LT 1 AP 23 BELVEDERE LORIAN BOULEV 060303196789                    SP          
R040772240300019320210009178944961700   CLAUDIA BOAMORTE DE AZEVEDO                                 01545826000107GAFISA S.A.                                                 249725010220210000112209350 0000001404117 UAV PRES JUSCELINO KUB 1830, CO AP 124 HIGH LINE JARDINS     045439007107                    SP          
R040772240300019320210009231691195839   DONIZETE MASSARU ISHI                                       01545826000107GAFISA S.A.                                                 249714010220210000071821967 0000000661519 URua Tuiuti 626 AP 52 SCENA TATUAPE                          030810157107                    SP          
R040772240300019320210009326312916898   FRANCISCO IZUMI MAKIYAMA                                    01545826000107GAFISA S.A.                                                 249711010220210000074112000 0000000579000 URua Tuiuti 626 AP 93 SCENA TATUAPE                          030810157107                    SP          
R040772240300019320210009405388632857   ANA CELIA ALVES DE AZEVEDO REVEILLE                         12707231000119GAFISA SPE-128 EMP.                                         249719010220210000090009600 0000000703200 UALAMEDA PAINEIRA VE S/N, LT 1 AP 192 BELVEDERE LORIAN BOULE 060303196789                    SP          
R040772240300019320210009529108106827   FERNANDA GOMES POTINATTI                                    12707231000119GAFISA SPE-128 EMP.                                         249712010220210000090432000 0000000706500 UALAMEDA PAINEIRA VE S/N, LT 1 AP 212 BELVEDERE LORIAN BOULE 060303196789                    SP          
R040772240300019320210009623076459856   DANIEL BARBIERI DE CARVALHO                                 12707231000119GAFISA SPE-128 EMP.                                         249747010220210000083660000 0000000890000 UALAMEDA PAINEIRA VE S/N, LT 1 AP 22 BELVEDERE LORIAN BOULEV 060303196789                    SP          
R040772240300019320210009737583048000180HERRERA                                                     11004776000104CONSORCIO JARDINS DA BARRA II                               249528010220210000037752000 0000000042900 UAV MARQUES DE SÃO VICENTE 2860 AP 103 BARRA VISTA           050360407107                    SP          
R040772240300019320210009839240570870   GABRIELA ARAUJO FUCHIDA                                     11004776000104CONSORCIO JARDINS DA BARRA II                               249536010220210000040946400 0000000270720 UAV MARQUES DE SÃO VICENTE 2860 AP 1506 BARRA VISTA          050360407107                    SP          
R040772240300019320210009943269157819   EDUARDO AUGUSTO BORGES FERNANDES                            11004776000104CONSORCIO JARDINS DA BARRA II                               249565010220210000040946400 0000000270720 UAV MARQUES DE SÃO VICENTE 2860 AP 1206 BARRA VISTA          050360407107                    SP          
R040772240300019320210010039571539805   RAPHAEL VIEIRA DUARTE DA SILVA                              01545826000107GAFISA S.A.                                                 249748010220210000026363880 0000000052839 U Rua Antonieta 602 AP 56 MOOV PARQUE MAIA                   070801206477                    SP          
R040772240300019320210010141538031892   ANA KAROLINE DA CONCEIÇÃO                                   01545826000107GAFISA S.A.                                                 249729010220210000026743080 0000000053599 U Rua Antonieta 602 AP 55 MOOV PARQUE MAIA                   070801206477                    SP          
R040772240300019320210010212698467878   MARIA LUCIA ANDRADE                                         34425790000179I240 SERRA DE JAIRE SPE - EMPR                              249745010220210000030559400 0000000325100 URUA SERRA DE JAIRÉ 78 AP 2009 MOOV BELÉM                    031750107107                    SP          
R040772240300019320210010331316500870   MARIA DANIELA FONSECA DE PAULA MONT                         01545826000107GAFISA S.A.                                                 249766010220210000035831600 0000000101230 UAv. Inajar de Souza 1137 AP 62 MOOV FREGUESIA               054430027107                    SP          
R040772240300019320210010431982846860   RAFAEL BARBOSA COCUROCI                                     01545826000107GAFISA S.A.                                                 249755010220210000159433400 0000001696100 URUA AFONSO DE FREITAS 75 AP 22 UPSIDE PARAISO               040060507107                    SP          
R040772240300019320210010525955327827   FABIO RIBAS DOS SANTOS                                      12707231000119GAFISA SPE-128 EMP.                                         249721010220210000054990000 0000000585000 UALAMEDA PAINEIRA VE S/N, LT 1 AP 13 BELVEDERE LORIAN BOULEV 060303196789                    SP          
R040772240300019320210010634068612889   CARLOS ALBERTO TEIXEIRA BARBOZA                             01545826000107GAFISA S.A.                                                 249718010220210000026978000 0000000287000 U Rua Antonieta 602 AP 156 MOOV PARQUE MAIA                  070801206477                    SP          
R040772240300019320210010711180495780   VICTOR DIDINI VINAGRE                                       10347650000161GAFISA SPE-87                                               249783010220210000047350000 0000000300000 URua Silva Mourão 107 AP 201 GOLDEN RESIDENCE                207714506001                    RJ          
R040772240300019320210010814277593836   GERISNALDO VASCONCELOS RAMOS                                01545826000107GAFISA S.A.                                                 249789010220210000029696000 0000000108800 UAv. Inajar de Souza 1137 AP 74 MOOV FREGUESIA               054430027107                    SP          
R040772240300019320210010920393104877   IVO SOUZA DE OLIVEIRA                                       01545826000107GAFISA S.A.                                                 249768010220210000075129000 0000000150575 URua Tuiuti 626 AP 133 SCENA TATUAPE                         030810157107                    SP          
R040772240300019320210011025079600861   CLEBER GONÇALVES                                            01545826000107GAFISA S.A.                                                 249763010220210000027542000 0000000293000 U Rua Antonieta 602 AP 194 MOOV PARQUE MAIA                  070801206477                    SP          
R040772240300019320210011121259538893   OTAVIO CANECCHIA NETO                                       01545826000107GAFISA S.A.                                                 249780010220210000141996400 0000001510600 URUA AFONSO DE FREITAS 75 AP 123 UPSIDE PARAISO              040060507107                    SP          
R040772240300019320210011212645857809   ANDREA COCHRANE                                             01545826000107GAFISA S.A.                                                 249765010220210000121465850 0000001792758 UAV PRES JUSCELINO KUB 1830, CO AP 122 HIGH LINE JARDINS     045439007107                    SP          
R040772240300019320210011312645857809   ANDREA COCHRANE                                             01545826000107GAFISA S.A.                                                 249764010220210000118941350 0000001755498 UAV PRES JUSCELINO KUB 1830, CO AP 112 HIGH LINE JARDINS     045439007107                    SP          
R040772240300019320210011475583801891   SUELI DE ANGELIS CAMPANER                                   01545826000107GAFISA S.A.                                                 249787010220210000084600000 0000000900000 UR VIEIRA DE ALMEIDA 550 AP 63 GAFISA SQUARE IPIRANGA        046280407107                    SP          
R040772240300019320210011511160773882   MARLI DE FÁTIMA PELOSI                                      34425758000193I230 CORONEL MURSA SPE - EMPRE                              249775010220210000014382000 0000000153000 URUA CORONEL MURSA 66 AP 47B MOOV ESTACAO BRAS               030430507107                    SP          
R040772240300019320210011603837897885   ANGELA MARIA DE FATIMA CASTILHO                             35152014000105NUOVE DIREZIONI SPE EMPREENDIM                              249754010220210000173059200 0000001802700 UAv Pres Juscelino Kubitschek 1 AP 144 NORMANDIE MOEMA       045430007107                    SP          
R040772240300019320210011720318263874   LUCIMARA SOARES RAMOS                                       35152014000105NUOVE DIREZIONI SPE EMPREENDIM                              249790010220210000175707072 0000001830282 UAv Pres Juscelino Kubitschek 1 AP 154 NORMANDIE MOEMA       045430007107                    SP          
R040772240300019320210011833350208800   VIVIAN APARECIDA VIEIRA MENESES                             01545826000107GAFISA S.A.                                                 249798010220210000041713600 0000000152830 U Rua Antonieta 602 AP 162 MOOV PARQUE MAIA                  070801206477                    SP          
R040772240300019320210011927779330818   FELIPO TORIN                                                35152014000105NUOVE DIREZIONI SPE EMPREENDIM                              249807010220210000240000000 0000002500000 UAv Pres Juscelino Kubitschek 1 AP 102 NORMANDIE MOEMA       045430007107                    SP          
R040772240300019320210012028802656819   ERIKA KURAUCHI                                              35152014000105NUOVE DIREZIONI SPE EMPREENDIM                              249806010220210000170784000 0000001779000 UAv Pres Juscelino Kubitschek 1 AP 114 NORMANDIE MOEMA       045430007107                    SP          
R040772240300019320210012109893262844   JOANINA SERAFINI HOLZHAUSEN                                 12707231000119GAFISA SPE-128 EMP.                                         249781010220210000057799560 0000000163293 UALAMEDA PAINEIRA VE S/N, LT 1 AP 235 BELVEDERE LORIAN BOULE 060303196789                    SP          
R040772240300019320210012234798618810   PRISCILA DE SOUZA VENTURA SANTOS                            15512917000142UPCON SPE 10 EMPREENDIMENTOS IMOBILIARIOS LTDA              002302010220210000038400000 0000000300000 UAv. Interlagos 1834 AP 146 UPLIFE INTERLAGOS                046600027107                    SP          
R040772240300019320210012312981084895   EDWARD SEIKI MIURA                                          15512917000142UPCON SPE 10 EMPREENDIMENTOS IMOBILIARIOS LTDA              002301010220210000038304000 0000000299250 UAv. Interlagos 1834 AP 186 UPLIFE INTERLAGOS                046600027107                    SP          
R040772240300019320210012411952532817   MARGARIDA ESTANISLAU DA SILVA                               15512917000142UPCON SPE 10 EMPREENDIMENTOS IMOBILIARIOS LTDA              002299010220210000038976000 0000000142800 UAv. Interlagos 1834 AP 56 UPLIFE INTERLAGOS                 046600027107                    SP          
R040772240300019320210012500516691880   LUIZ CARLOS DO CARMO                                        15512917000142UPCON SPE 10 EMPREENDIMENTOS IMOBILIARIOS LTDA              002304010220210000040448200 0000000430300 UAv. Interlagos 1834 AP 84 UPLIFE INTERLAGOS                 046600027107                    SP          
R040772240300019320210012600516691880   LUIZ CARLOS DO CARMO                                        15512917000142UPCON SPE 10 EMPREENDIMENTOS IMOBILIARIOS LTDA              002305010220210000041360000 0000000440000 UAv. Interlagos 1834 AP 142 UPLIFE INTERLAGOS                046600027107                    SP          
R040772240300019320210012736918348841   JONATAS GONÇALVES DE OLIVEIRA                               15512917000142UPCON SPE 10 EMPREENDIMENTOS IMOBILIARIOS LTDA              002308010220210000037440000 0000000292500 UAv. Interlagos 1834 AP 34 UPLIFE INTERLAGOS                 046600027107                    SP          
R040772240300019320210012804078722806   GILBERTO PAZ SILVA                                          15512917000142UPCON SPE 10 EMPREENDIMENTOS IMOBILIARIOS LTDA              002307010220210000040448200 0000000430300 UAv. Interlagos 1834 AP 102 UPLIFE INTERLAGOS                046600027107                    SP          
R040772240300019320210012910182922847   RENÍ MARIA TOGNONI                                          17707105000188UPCON VILA MADALENA SPE 22 EMP                              002309010220210000027300480 0000000213285 URua Simpatia 200 AP 107 UPDATE MADALENA                     054360207107                    SP          
R040772240300019320210013015235049861   ANA JOSEFA SEVERINO PEREIRA                                 01545826000107GAFISA S.A.                                                 249831010320210000022192680 0000000044479 UAlameda Caulin 35 AP 910 SAO - GATE                         095311957077                    SP          
R040772240300019320210013143569489809   RAFAEL CARDOSO INFANTE                                      01545826000107GAFISA S.A.                                                 249852010320210000080544000 0000000629250 URua Tuiuti 626 AP 194 SCENA TATUAPE                         030810157107                    SP          
R040772240300019320210013239602186801   SUELEN PAES DE OLIVEIRA                                     01545826000107GAFISA S.A.                                                 249850010320210000074457400 0000000752495 URua Tuiuti 626 AP 53 SCENA TATUAPE                          030810157107                    SP          
R040772240300019320210013339640425877   LUCAS FELIPE DA SILVA                                       01545826000107GAFISA S.A.                                                 249845010320210000026458680 0000000053029 U Rua Antonieta 602 AP 96 MOOV PARQUE MAIA                   070801206477                    SP          
R040772240300019320210013457331898868   CLAUDIO LARIZZA                                             01545826000107GAFISA S.A.                                                 249846010320210000072522000 0000000145350 URua Tuiuti 626 AP 22 SCENA TATUAPE                          030810157107                    SP          
R040772240300019320210013534783402841   CAMILA ALBUQUERQUE CAVALCANTE SILVE                         34425758000193I230 CORONEL MURSA SPE - EMPRE                              249860010320210000015980000 0000000193800 URUA CORONEL MURSA 66 AP 176B MOOV ESTACAO BRAS              030430507107                    SP          
R040772240300019320210013631580156843   RAPHAEL PEREIRA FARIA                                       12707231000119GAFISA SPE-128 EMP.                                         249769010320210000072480000 0000000566250 UALAMEDA PAINEIRA VE S/N, LT 1 AP 242 BELVEDERE LORIAN BOULE 060303196789                    SP          
R040772240300019320210013715408295885   FABIO LUIZ SIQUEIRA DE PAULA                                12707231000119GAFISA SPE-128 EMP.                                         249751010320210000056749000 0000000160325 UALAMEDA PAINEIRA VE S/N, LT 1 AP 195 BELVEDERE LORIAN BOULE 060303196789                    SP          
R040772240300019320210013836699639870   PRISCILA CRUZ THOMACHESKY                                   01545826000107GAFISA S.A.                                                 249796010320210000021330000 0000000042750 UAlameda Caulin 35 AP 1526 SAO - GATE                        095311957077                    SP          
R040772240300019320210013936096183883   LOREN FRANCINE BRITTO                                       12707231000119GAFISA SPE-128 EMP.                                         249804010320210000060192000 0000000470250 UALAMEDA PAINEIRA VE S/N, LT 1 AP 163 BELVEDERE LORIAN BOULE 060303196789                    SP          
R040772240300019320210014031298007860   MAYARA ITALANANDI FALCÃO DA SILVA                           01545826000107GAFISA S.A.                                                 249793010320210000026884160 0000000098498 U Rua Antonieta 602 AP 126 MOOV PARQUE MAIA                  070801206477                    SP          
R040772240300019320210014126090114820   DIEGO COLICCHIO LOPES                                       35152014000105NUOVE DIREZIONI SPE EMPREENDIM                              249805010320210000217075000 0000003461775 UAv Pres Juscelino Kubitschek 1 AP 43 NORMANDIE MOEMA        045430007107                    SP          
R040772240300019320210014208409658852   MYRNA SAHD                                                  01545826000107GAFISA S.A.                                                 249847010320210000075360000 0000000588750 URua Tuiuti 626 AP 161 SCENA TATUAPE                         030810157107                    SP          
R040772240300019320210014331225208858   PRISCILA CANTONI AGUADO                                     12707231000119GAFISA SPE-128 EMP.                                         249858010320210000076800000 0000000600000 UALAMEDA PAINEIRA VE S/N, LT 1 AP 262 BELVEDERE LORIAN BOULE 060303196789                    SP          
R040772240300019320210014429384542873   JEFFERSON PEREIRA DE SOUZA                                  12707231000119GAFISA SPE-128 EMP.                                         249863010320210000084600000 0000000900000 UALAMEDA PAINEIRA VE S/N, LT 1 AP 92 BELVEDERE LORIAN BOULEV 060303196789                    SP          
R040772240300019320210014526947878861   JOSE EDUARDO DE SOUZA                                       12707231000119GAFISA SPE-128 EMP.                                         249856010320210000062400000 0000000487500 UALAMEDA PAINEIRA VE S/N, LT 1 AP 255 BELVEDERE LORIAN BOULE 060303196789                    SP          
R040772240300019320210014617704572830   FERNANDA JULIO PLATERO                                      12707231000119GAFISA SPE-128 EMP.                                         249867010320210000063295117 0000000494493 UALAMEDA PAINEIRA VE S/N, LT 1 AP 173 BELVEDERE LORIAN BOULE 060303196789                    SP          
R040772240300019320210014701899565000115EMPORIO                                                     01545826000107GAFISA S.A.                                                 249911010320210000037446000 0000000075050 UAv. Inajar de Souza 1137 AP 107 MOOV FREGUESIA              054430027107                    SP          
R040772240300019320210014802607681545   JIUBERTO ALVES DE FIGUEREDO                                 12707231000119GAFISA SPE-128 EMP.                                         249838010320210000070575200 0000000750800 UALAMEDA PAINEIRA VE S/N, LT 1 AP 11 BELVEDERE LORIAN BOULEV 060303196789                    SP          
R040772240300019320210014942422106803   ANDERSON SILVA DOS SANTOS                                   01545826000107GAFISA S.A.                                                 249877010320210000024768000 0000000193500 U Rua Antonieta 602 AP 23 MOOV PARQUE MAIA                   070801206477                    SP          
R040772240300019320210015022520484845   MARCELO GALDINO PEREIRA                                     01545826000107GAFISA S.A.                                                 249880010320210000002159650 0000000022975 U Rua Antonieta 602 AP 539M MOOV PARQUE MAIA                 070801206477                    SP          
R040772240300019320210015194002347834   CLAUDIO DO NASCIMENTO                                       01545826000107GAFISA S.A.                                                 249786010320210000074682083 0000000794491 URua Tuiuti 626 AP 21 SCENA TATUAPE                          030810157107                    SP          
R040772240300019320210015201220005000192MARURI                                                      01545826000107GAFISA S.A.                                                 249869010320210000126900000 0000001350000 URUA AFONSO DE FREITAS 75 AP 43 UPSIDE PARAISO               040060507107                    SP          
R040772240300019320210015301100111980   CHEN FENG PING                                              01545826000107GAFISA S.A.                                                 249888010320210000148480000 0000000544000 URUA AFONSO DE FREITAS 75 AP 173 UPSIDE PARAISO              040060507107                    SP          
R040772240300019320210015415374527894   DANIEL GIBELLI PINTO                                        01545826000107GAFISA S.A.                                                 249874010320210000020666400 0000000041420 UAlameda Caulin 35 AP 1401 SAO - GATE                        095311957077                    SP          
R040772240300019320210015503319190873   JOSE ROBERTO GIUSTI MALAVASI                                01545826000107GAFISA S.A.                                                 249876010320210000020571600 0000000041230 UAlameda Caulin 35 AP 901 SAO - GATE                         095311957077                    SP          
R040772240300019320210015605483920805   APARECIDA MARILDES DE AZEVEDO                               01545826000107GAFISA S.A.                                                 249864010320210000032352000 0000000252750 UAv. Inajar de Souza 1137 AP 76 MOOV FREGUESIA               054430027107                    SP          
R040772240300019320210015747330039861   DANIEL SILVA DE SOUZA                                       01545826000107GAFISA S.A.                                                 249887010320210000027091200 0000000211650 U Rua Antonieta 602 AP 153 MOOV PARQUE MAIA                  070801206477                    SP          
R040772240300019320210015818351171808   SIBELLI CRISTINA ARTICO                                     12707231000119GAFISA SPE-128 EMP.                                         249875010320210000058560000 0000000603900 UALAMEDA PAINEIRA VE S/N, LT 1 AP 223 BELVEDERE LORIAN BOULE 060303196789                    SP          
R040772240300019320210015911467653802   FABIO ROVEDO DE MELLO                                       12707231000119GAFISA SPE-128 EMP.                                         249889010320210000066646000 0000000709000 UALAMEDA PAINEIRA VE S/N, LT 1 AP 236 BELVEDERE LORIAN BOULE 060303196789                    SP          
R040772240300019320210016030219148880   ANDERSON AMERICO DA SILVA OLIVEIRA                          01545826000107GAFISA S.A.                                                 249892010320210000040241400 0000000428100 U Rua Antonieta 602 AP 162 MOOV PARQUE MAIA                  070801206477                    SP          
R040772240300019320210016117061883820   JÚLIO ANTÔNIO BELTRAMI DA SILVA                             01545826000107GAFISA S.A.                                                 249849010320210000023520000 0000000183750 UAlameda Caulin 35 AP 711 SAO - GATE                         095311957077                    SP          
R040772240300019320210016235560847836   MURILO GAVRANICH LAMOTTA                                    01545826000107GAFISA S.A.                                                 249918010320210000080684280 0000000161709 URua Tuiuti 626 AP 181 SCENA TATUAPE                         030810157107                    SP          
R040772240300019320210016330387745882   IALA ALBARAM MARTINELI                                      01545826000107GAFISA S.A.                                                 249915010320210000020856000 0000000041800 UAlameda Caulin 35 AP 1226 SAO - GATE                        095311957077                    SP          
R040772240300019320210016438704829824   LETICIA ALVES TIZEU                                         01545826000107GAFISA S.A.                                                 249937010320210000029528240 0000000083422 U Rua Antonieta 602 AP 196 MOOV PARQUE MAIA                  070801206477                    SP          
R040772240300019320210016543116011826   THAIS SILVA DO NASCIMENTO                                   01545826000107GAFISA S.A.                                                 249925010320210000077903712 0000000608623 URua Tuiuti 626 AP 192 SCENA TATUAPE                         030810157107                    SP          
R040772240300019320210016604053914558   JONATAN DA SILVA LIMA                                       01545826000107GAFISA S.A.                                                 249926010320210000028022880 0000000056164 U Rua Antonieta 602 AP 125 MOOV PARQUE MAIA                  070801206477                    SP          
R040772240300019320210016738534411816   CAIO CESAR DO BOMFIM                                        01545826000107GAFISA S.A.                                                 249948010320210000038382080 0000000140624 U Rua Antonieta 602 AP 101 MOOV PARQUE MAIA                  070801206477                    SP          
R040772240300019320210016822955260860   IARA SUSI MARIA SILVA                                       11004776000104CONSORCIO JARDINS DA BARRA II                               249682010320210000017523200 0000000171125 UAV MARQUES DE SÃO VICENTE 2860 AP 1 BARRA VIVA              050360407107                    SP          
R040772240300019320210016922711202844   TALITA DA SILVEIRA CAMPOS TEIXEIRA                          35152014000105NUOVE DIREZIONI SPE EMPREENDIM                              249939010320210000186969600 0000001947600 UAv Pres Juscelino Kubitschek 1 AP 174 NORMANDIE MOEMA       045430007107                    SP          
R040772240300019320210017030856726800   GABRIELLE SCHAFER VILAS BOAS GIBIN                          01545826000107GAFISA S.A.                                                 249881010320210000022560000 0000000176250 UAlameda Caulin 35 AP 1418 SAO - GATE                        095311957077                    SP          
R040772240300019320210017130856726800   GABRIELLE SCHAFER VILAS BOAS GIBIN                          01545826000107GAFISA S.A.                                                 249882010320210000022560000 0000000176250 UAlameda Caulin 35 AP 1419 SAO - GATE                        095311957077                    SP          
R040772240300019320210017230856726800   GABRIELLE SCHAFER VILAS BOAS GIBIN                          01545826000107GAFISA S.A.                                                 249883010320210000022560000 0000000176250 UAlameda Caulin 35 AP 1420 SAO - GATE                        095311957077                    SP          
R040772240300019320210017323865655000128K4 EMPREENDIMENTOS                                          35152014000105NUOVE DIREZIONI SPE EMPREENDIM                              249935010320210000259742400 0000002705650 UAv Pres Juscelino Kubitschek 1 AP 163 NORMANDIE MOEMA       045430007107                    SP          
R040772240300019320210017442629887839   RAUL GARBELLOTTO CAVENDISH                                  35152014000105NUOVE DIREZIONI SPE EMPREENDIM                              249913010320210000251552376 0000002620337 UAv Pres Juscelino Kubitschek 1 AP 103 NORMANDIE MOEMA       045430007107                    SP          
R040772240300019320210017515136246871   ANDERSON LUIZ DE SOUZA                                      01545826000107GAFISA S.A.                                                 249946010320210000022278000 0000000044650 UAlameda Caulin 35 AP 1203 SAO - GATE                        095311957077                    SP          
R040772240300019320210017615136246871   ANDERSON LUIZ DE SOUZA                                      01545826000107GAFISA S.A.                                                 249947010320210000022278000 0000000044650 UAlameda Caulin 35 AP 1204 SAO - GATE                        095311957077                    SP          
R040772240300019320210017704930749883   SERGIO RODRIGUES DA SILVA                                   34425758000193I230 CORONEL MURSA SPE - EMPRE                              249949010320210000023030000 0000000245000 URUA CORONEL MURSA 66 AP 32B MOOV ESTACAO BRAS               030430507107                    SP          
R040772240300019320210017802555193707   RAUL ANTONIO NASCIMENTO DA SILVA                            01545826000107GAFISA S.A.                                                 249958010320210000035039000 0000000222000 UESTRADA DO BANANAL 641 AP 506 TODAY MODERN RESIDENCES       227500136001                    RJ          
R040772240300019320210017926439639897   WALMIR BELARMINO ALVES                                      01545826000107GAFISA S.A.                                                 249944010320210000027559500 0000000253837 U Rua Antonieta 602 AP 56 MOOV PARQUE MAIA                   070801206477                    SP          
R040772240300019320210018032387037812   DIEGO DO NASCIMENTO MENIN                                   01545826000107GAFISA S.A.                                                 249956010320210000086010000 0000000915000 URua Tuiuti 626 AP 203 SCENA TATUAPE                         030810157107                    SP          
R040772240300019320210018131268329894   ANDERSON DE LIMA NERY                                       12707231000119GAFISA SPE-128 EMP.                                         249951010320210000070848000 0000000553500 UALAMEDA PAINEIRA VE S/N, LT 1 AP 12 BELVEDERE LORIAN BOULEV 060303196789                    SP          
R040772240300019320210018223075404829   VANESSA GOTARDO KESTRING                                    01545826000107GAFISA S.A.                                                 249967010320210000076015380 0000000152352 URua Tuiuti 626 AP 202 SCENA TATUAPE                         030810157107                    SP          
R040772240300019320210018339243860801   MARIA CLAUDIA DA PAZ ANDRADE                                35152014000105NUOVE DIREZIONI SPE EMPREENDIM                              249973010320210000264000000 0000002750000 UAv Pres Juscelino Kubitschek 1 AP 171 NORMANDIE MOEMA       045430007107                    SP          
R040772240300019320210018401392655897   ANA CELIA MADALENA DE ALMEIDA                               15512917000142UPCON SPE 10 EMPREENDIMENTOS IMOBILIARIOS LTDA              002310010320210000040574400 0000000081320 UAv. Interlagos 1834 AP 114 UPLIFE INTERLAGOS                046600027107                    SP          
R040772240300019320210018516490632888   LUSENILDA GOMES DE LIMA                                     15512917000142UPCON SPE 10 EMPREENDIMENTOS IMOBILIARIOS LTDA              002311010320210000038394000 0000000076950 UAv. Interlagos 1834 AP 176 UPLIFE INTERLAGOS                046600027107                    SP          
R040772240300019320210018636405797805   RICARDO JULIO SOUSA SILVA                                   15512917000142UPCON SPE 10 EMPREENDIMENTOS IMOBILIARIOS LTDA              002312010320210000035834400 0000000071820 UAv. Interlagos 1834 AP 96 UPLIFE INTERLAGOS                 046600027107                    SP          
R040772240300019320210018727610279811   DANIELA BARROS DO NASCIMENTO                                15512917000142UPCON SPE 10 EMPREENDIMENTOS IMOBILIARIOS LTDA              002316010320210000038394000 0000000137700 UAv. Interlagos 1834 AP 113 UPLIFE INTERLAGOS                046600027107                    SP          
R040772240300019320210018837237409875   NATALIA KELLY SILVA SOUZA                                   15512917000142UPCON SPE 10 EMPREENDIMENTOS IMOBILIARIOS LTDA              002314010320210000038880000 0000000400950 UAv. Interlagos 1834 AP 136 UPLIFE INTERLAGOS                046600027107                    SP          
R040772240300019320210018975672855849   FERNANDO GOMES VIEIRA                                       15512917000142UPCON SPE 10 EMPREENDIMENTOS IMOBILIARIOS LTDA              002313010320210000036288000 0000000283500 UAv. Interlagos 1834 AP 53 UPLIFE INTERLAGOS                 046600027107                    SP          
R040772240300019320210019043100382803   ANDREIA FARES FARAH                                         15512917000142UPCON SPE 10 EMPREENDIMENTOS IMOBILIARIOS LTDA              002315010320210000039072000 0000000305250 UAv. Interlagos 1834 AP 126 UPLIFE INTERLAGOS                046600027107                    SP          
R040772240300019320210019136032526836   NATALIA CABRAL SILVA                                        01545826000107GAFISA S.A.                                                 249963010420210000037161600 0000000290325 U Rua Antonieta 602 AP 92 MOOV PARQUE MAIA                   070801206477                    SP          
R040772240300019320210019203935306636   MARCO AURELIO BERTOLOTTI BRAGA                              01545826000107GAFISA S.A.                                                 249979010420210000076809600 0000000600075 URua Tuiuti 626 AP 163 SCENA TATUAPE                         030810157107                    SP          
R040772240300019320210019338535783814   FERNANDA MONTEIRO DENADAI                                   01545826000107GAFISA S.A.                                                 250001010420210000035550000 0000000071250 UAv. Inajar de Souza 1137 AP 41 MOOV FREGUESIA               054430027107                    SP          
R040772240300019320210019440841757810   PRISCILA DOS SANTOS NASCIMENTO                              01545826000107GAFISA S.A.                                                 249987010420210000030345480 0000000060819 U Rua Antonieta 602 AP 155 MOOV PARQUE MAIA                  070801206477                    SP          
R040772240300019320210019522928105816   EDUARDO CARLOS LOPEZ                                        35152014000105NUOVE DIREZIONI SPE EMPREENDIM                              250003010420210000184329600 0000001920100 UAv Pres Juscelino Kubitschek 1 AP 164 NORMANDIE MOEMA       045430007107                    SP          
R040772240300019320210019603892895821   ANA RITA ALONSO DE OLIVEIRA                                 01545826000107GAFISA S.A.                                                 249992010420210000036498000 0000000073150 UAvenida Duque de Caxias 61 AP 604B SMART SANTA CECILIA      012141007107                    SP          
R040772240300019320210019711444128892   VINICIUS MARTINS DE MORAES                                  01545826000107GAFISA S.A.                                                 250005010420210000073344000 0000000573000 URua Tuiuti 626 AP 23 SCENA TATUAPE                          030810157107                    SP          
R040772240300019320210019816751338830   RODRIGO LOCATELLI PEDRO PAULO                               12707231000119GAFISA SPE-128 EMP.                                         250000010420210000097449280 0000000357034 UALAMEDA PAINEIRA VE S/N, LT 1 AP 81 BELVEDERE LORIAN BOULEV 060303196789                    SP          
R040772240300019320210019916264086886   OSWALDO LOURENÇO DE MOLLA NETO                              01545826000107GAFISA S.A.                                                 249999010420210000023700000 0000000047500 UAlameda Caulin 35 AP 1406 SAO - GATE                        095311957077                    SP          
R040772240300019320210020016264086886   OSWALDO LOURENÇO DE MOLLA NETO                              01545826000107GAFISA S.A.                                                 249998010420210000022752000 0000000045600 UAlameda Caulin 35 AP 1405 SAO - GATE                        095311957077                    SP          
R040772240300019320210020109059529871   RICARDO APOLO VIEIRA LAPASTINA                              01545826000107GAFISA S.A.                                                 250012010420210000080456760 0000000161253 URua Tuiuti 626 AP 212 SCENA TATUAPE                         030810157107                    SP          
R040772240300019320210020227276878856   NILSON ANTON DA SILVA                                       01545826000107GAFISA S.A.                                                 250004010420210000085025818 0000000904529 URua Tuiuti 626 AP 122 SCENA TATUAPE                         030810157107                    SP          
R040772240300019320210020339407634892   RENATA BONPAM                                               01545826000107GAFISA S.A.                                                 249989010420210000029913600 0000000233700 U Rua Antonieta 602 AP 143 MOOV PARQUE MAIA                  070801206477                    SP          
R040772240300019320210020432721052802   VANDERSON OLIVEIRA JARDIM                                   01545826000107GAFISA S.A.                                                 250017010420210000027950399 0000000218362 U Rua Antonieta 602 AP 25 MOOV PARQUE MAIA                   070801206477                    SP          
R040772240300019320210020511203234104   FÁTIMA ALI ZAHRA                                            01545826000107GAFISA S.A.                                                 250019010420210000024354120 0000000048811 URUA AFONSO DE FREITAS 75 AP 52 UPSIDE PARAISO               040060507107                    SP          
R040772240300019320210020648144653866   ALISSON DOS SANTOS SILVA                                    01545826000107GAFISA S.A.                                                 250015010420210000078977880 0000000158289 URua Tuiuti 626 AP 142 SCENA TATUAPE                         030810157107                    SP          
R040772240300019320210020710780615727   RODOLPHO DA SILVA BARROS                                    01545826000107GAFISA S.A.                                                 249993010420210000035777660 0000000226680 UESTRADA DO BANANAL 641 AP 606 TODAY MODERN RESIDENCES       227500136001                    RJ          
R040772240300019320210020804665090815   JOÃO ROBERTO CIUCCIO                                        01545826000107GAFISA S.A.                                                 250036010420210000037593600 0000000293700 U Rua Antonieta 602 AP 52 MOOV PARQUE MAIA                   070801206477                    SP          
R040772240300019320210020922067137808   WAGNER BARBOSA DE SOUSA                                     12707231000119GAFISA SPE-128 EMP.                                         250016010420210000057363480 0000000114969 UALAMEDA PAINEIRA VE S/N, LT 1 AP 23 BELVEDERE LORIAN BOULEV 060303196789                    SP          
R040772240300019320210021084145030800   NELCI WEDEKIN BOLDRIN                                       12707231000119GAFISA SPE-128 EMP.                                         250029010420210000062332800 0000000486975 UALAMEDA PAINEIRA VE S/N, LT 1 AP 193 BELVEDERE LORIAN BOULE 060303196789                    SP          
R040772240300019320210021137097287896   KLEMILSON ABREU DE SOUZA                                    01545826000107GAFISA S.A.                                                 250037010420210000029776680 0000000059679 U Rua Antonieta 602 AP 123 MOOV PARQUE MAIA                  070801206477                    SP          
R040772240300019320210021216813825801   FABRICIO FERES ROSIN                                        12707231000119GAFISA SPE-128 EMP.                                         250013010420210000062745600 0000000490200 UALAMEDA PAINEIRA VE S/N, LT 1 AP 244 BELVEDERE LORIAN BOULE 060303196789                    SP          
R040772240300019320210021329621380200   ADAILSON GUIMARÃES DE ABREU                                 01545826000107GAFISA S.A.                                                 250041010420210000029918880 0000000059964 U Rua Antonieta 602 AP 115 MOOV PARQUE MAIA                  070801206477                    SP          
R040772240300019320210021421352002809   FERNANDO QUINUP                                             01545826000107GAFISA S.A.                                                 250020010420210000077940660 0000000608911 URua Tuiuti 626 AP 133 SCENA TATUAPE                         030810157107                    SP          
R040772240300019320210021513632556814   ELIANE CRISTINA DA CONCEIÇÃO SILVA                          01545826000107GAFISA S.A.                                                 250032010420210000076291200 0000000596025 URua Tuiuti 626 AP 172 SCENA TATUAPE                         030810157107                    SP          
R040772240300019320210021628730263832   ELIZÂNGELA DE SOUZA ARAÚJO                                  01545826000107GAFISA S.A.                                                 250070010420210000041827656 0000000083832 U Rua Antonieta 602 AP 102 MOOV PARQUE MAIA                  070801206477                    SP          
R040772240300019320210021705916587120   SAMUEL BERNARDES SANTANA                                    34425758000193I230 CORONEL MURSA SPE - EMPRE                              250095010420210000014861400 0000000158100 URUA CORONEL MURSA 66 AP 60 MOOV ESTACAO BRAS                030430507107                    SP          
R040772240300019320210021830792218850   KAREN CRISTINA ROSS MACHADO                                 01545826000107GAFISA S.A.                                                 250074010420210000074598120 0000000149511 URua Tuiuti 626 AP 112 SCENA TATUAPE                         030810157107                    SP          
R040772240300019320210021942718458844   RENAN CAMPOS RODRIGUES                                      01545826000107GAFISA S.A.                                                 250118010420210000081225600 0000000634575 URua Tuiuti 626 AP 192 SCENA TATUAPE                         030810157107                    SP          
R040772240300019320210022008069546719   EDSON LANI RONCONI                                          32415652000183GDU LOTEAMENTOS LTDA                                        250086010420210000008649000 0000000186000 UAv Pres Juscelino Kubitschek 1 AP A218 GAFISA DESENVOLVIMEN 045430007107                    SP          
R040772240300019320210022111658917000102M.MACHADO                                                   17148050000113UPCON SPE 16 EMP IMOB LTDA                                  249995010420210000139481136 0000000279551 UAv. Das Nações 12399 AP 72 UPCON CINQUO                     045780007107                    SP          
R040772240300019320210022215227899000157EPICO                                                       32415652000183GDU LOTEAMENTOS LTDA                                        250010010420210000008370000 0000000090000 UAv Pres Juscelino Kubitschek 1 AP V115 GAFISA DESENVOLVIM   045430007107                    SP          
R040772240300019320210022305552433700   WELDER FRANCYS LOUBACK                                      32415652000183GDU LOTEAMENTOS LTDA                                        250011010420210000008370000 0000000090000 UAv Pres Juscelino Kubitschek 1 AP A203 GAFISA DESENVOLVIM   045430007107                    SP          
R040772240300019320210022410299770702   ITALO CARLOS CASAGRANDE                                     32415652000183GDU LOTEAMENTOS LTDA                                        250080010420210000009300000 0000000100000 UAv Pres Juscelino Kubitschek 1 AP Y107 GAFISA DESENVOLVIMEN 045430007107                    SP          
R040772240300019320210022510299770702   ITALO CARLOS CASAGRANDE                                     32415652000183GDU LOTEAMENTOS LTDA                                        250081010420210000009300000 0000000100000 UAv Pres Juscelino Kubitschek 1 AP Y108 GAFISA DESENVOLVIMEN 045430007107                    SP          
R040772240300019320210022681306156068   RUBENS MARCELO TEIXEIRA PIROTTO                             32415652000183GDU LOTEAMENTOS LTDA                                        250087010420210000012090000 0000000130000 UAv Pres Juscelino Kubitschek 1 AP A301 GAFISA DESENVOLVIMEN 045430007107                    SP          
R040772240300019320210022781306156068   RUBENS MARCELO TEIXEIRA PIROTTO                             32415652000183GDU LOTEAMENTOS LTDA                                        250088010420210000012090000 0000000130000 UAv Pres Juscelino Kubitschek 1 AP C314 GAFISA DESENVOLVIMEN 045430007107                    SP          
R040772240300019320210022838431700963   SIRIO JOSE MALLMANN                                         32415652000183GDU LOTEAMENTOS LTDA                                        250089010420210000012090000 0000000130000 UAv Pres Juscelino Kubitschek 1 AP B311 GAFISA DESENVOLVIMEN 045430007107                    SP          
R040772240300019320210022903676715810   EDSON GONÇALVES                                             12707231000119GAFISA SPE-128 EMP.                                         250135010420210000088360000 0000000940000 UALAMEDA PAINEIRA VE S/N, LT 1 AP 71 BELVEDERE LORIAN BOULEV 060303196789                    SP          
R040772240300019320210023029744761806   ANGELA LOURENÇO DE SOUZA                                    01545826000107GAFISA S.A.                                                 250102010420210000041247480 0000000082669 UAVENIDA INTERLAGOS 1740 AP 163B BOSQUE MARAJOARA            046600027107                    SP          
R040772240300019320210023122377627838   JULIANO CIASCA GIARETTA                                     01545826000107GAFISA S.A.                                                 250119010420210000076797480 0000000153919 UR VIEIRA DE ALMEIDA 550 AP 14 GAFISA SQUARE IPIRANGA        046280407107                    SP          
R040772240300019320210023210653055757   MARILIA MARTINS LOPES SANTANA                               34425758000193I230 CORONEL MURSA SPE - EMPRE                              250129010420210000014352000 0000000149500 URUA CORONEL MURSA 66 AP 17B MOOV ESTACAO BRAS               030430507107                    SP          
R040772240300019320210023313249727857   LUIZ FERNANDO VALENTE DE PAIVA                              01545826000107GAFISA S.A.                                                 250125010420210000507180000 0000001016500 URUA NATINGUI 1518 AP 31 067 HERMANN JUNIOR                  054430027107                    SP          
R040772240300019320210023425899449691   JOSE GERALDO COIMBRA                                        34425758000193I230 CORONEL MURSA SPE - EMPRE                              250099010420210000024000000 0000000187500 URUA CORONEL MURSA 66 AP 112A MOOV ESTACAO BRAS              030430507107                    SP          
R040772240300019320210023510706814827   CARLOS MARCOS DE OLIVEIRA NETO                              17147991000132UPCON SPE 18 EMPREENDIMENTOS IMOBILIARIOS S/A               002318010420210000187200000 0000001462500 URua Itacema,65 AP 38 ITACEMA                                045300507107                    SP          
R040772240300019320210023631176669826   BRUNO DE SANTANA DOS SANTOS                                 15512917000142UPCON SPE 10 EMPREENDIMENTOS IMOBILIARIOS LTDA              002320010420210000041642000 0000000443000 UAv. Interlagos 1834 AP 61 UPLIFE INTERLAGOS                 046600027107                    SP          
R040772240300019320210023799861739220   THIAGO DA FONSECA DE SOUZA                                  15512917000142UPCON SPE 10 EMPREENDIMENTOS IMOBILIARIOS LTDA              002317010420210000039456000 0000000308250 UAv. Interlagos 1834 AP 65 UPLIFE INTERLAGOS                 046600027107                    SP          
R040772240300019320210023813428338804   ANDRE FALASCHI                                              15512917000142UPCON SPE 10 EMPREENDIMENTOS IMOBILIARIOS LTDA              002319010420210000042720000 0000000333750 UAv. Interlagos 1834 AP 134 UPLIFE INTERLAGOS                046600027107                    SP          
R040772240300019320210023928744726899   DANIELA NOBREGA PAVAO                                       01545826000107GAFISA S.A.                                                 250143010520210000081801600 0000000639075 URua Tuiuti 626 AP 152 SCENA TATUAPE                         030810157107                    SP          
R040772240300019320210024034876196877   IGOR FERREIRA DE SOUZA                                      01545826000107GAFISA S.A.                                                 250142010520210000039351480 0000000078869 UAVENIDA INTERLAGOS 1740 AP 204C BOSQUE MARAJOARA            046600027107                    SP          
R040772240300019320210024181345690800   SERGIO AMADO                                                12707231000119GAFISA SPE-128 EMP.                                         250145010520210000062700000 0000000577500 UALAMEDA PAINEIRA VE S/N, LT 1 AP 185 BELVEDERE LORIAN BOULE 060303196789                    SP          
R040772240300019320210024208503325675   LUCAS VAZ MOREIRA                                           01545826000107GAFISA S.A.                                                 250109010520210000035986000 0000000228000 UESTRADA DO BANANAL 641 AP 605 TODAY MODERN RESIDENCES       227500136001                    RJ          
R040772240300019320210024342905489898   DIOGO HENRIQUE RIBEIRO BASAGLIA                             01545826000107GAFISA S.A.                                                 250148010520210000082817280 0000000165984 URua Tuiuti 626 AP 182 SCENA TATUAPE                         030810157107                    SP          
R040772240300019320210024426752727015   Wladimir Luiz Maciel                                        32415652000183GDU LOTEAMENTOS LTDA                                        250156010520210000012090000 0000000130000 UAv Pres Juscelino Kubitschek 1 AP I310 GAFISA DESENVOLVIMEN 045430007107                    SP          
R040772240300019320210024546747346068   CLAUDIOMIRO DE FRAGA SILVA                                  32415652000183GDU LOTEAMENTOS LTDA                                        250160010520210000012090000 0000000130000 UAv Pres Juscelino Kubitschek 1 AP G318 GAFISA DESENVOLVIMEN 045430007107                    SP          
R040772240300019320210024674236644053   JOSE RONALDO VARELA PEREZ                                   32415652000183GDU LOTEAMENTOS LTDA                                        250163010520210000013020000 0000000140000 UAv Pres Juscelino Kubitschek 1 AP A312 GAFISA DESENVOLVIMEN 045430007107                    SP          
R040772240300019320210024756690908020   CARLOS EDUARDO HADAD RAMOS                                  32415652000183GDU LOTEAMENTOS LTDA                                        250161010520210000013020000 0000000140000 UAv Pres Juscelino Kubitschek 1 AP H301 GAFISA DESENVOLVIMEN 045430007107                    SP          
R040772240300019320210024836133001844   BARBARA ANNE DE SANDRE VEIGA                                34425758000193I230 CORONEL MURSA SPE - EMPRE                              250174010520210000023904000 0000000249000 URUA CORONEL MURSA 66 AP 12A MOOV ESTACAO BRAS               030430507107                    SP          
R040772240300019320210024926568953830   LILIAN MARA FERREIRA                                        12707231000119GAFISA SPE-128 EMP.                                         250147010520210000063051480 0000000126369 UALAMEDA PAINEIRA VE S/N, LT 1 AP 275 BELVEDERE LORIAN BOULE 060303196789                    SP          
R040772240300019320210025036183263869   RANIEL APARECIDO SULINO DE CARVALHO                         01545826000107GAFISA S.A.                                                 250177010520210000078441600 0000000612825 URua Tuiuti 626 AP 113 SCENA TATUAPE                         030810157107                    SP          
R040772240300019320210025134436957870   LEON PSANQUEVICH                                            12707231000119GAFISA SPE-128 EMP.                                         250171010520210000059032000 0000000628000 UALAMEDA PAINEIRA VE S/N, LT 1 AP 16 BELVEDERE LORIAN BOULEV 060303196789                    SP          
R040772240300019320210025213125513723   EDUARDO GABURO BAPTISTI                                     32415652000183GDU LOTEAMENTOS LTDA                                        250159010520210000009300000 0000000100000 UAv Pres Juscelino Kubitschek 1 AP A219 GAFISA DESENVOLVIMEN 045430007107                    SP          
R040772240300019320210025328346635800   CARLOS EDUARDO GENEROSO RIBEIRO                             01545826000107GAFISA S.A.                                                 250168010520210000040485800 0000000430700 UAv. Inajar de Souza 1137 AP 201 MOOV FREGUESIA              054430027107                    SP          
R040772240300019320210025405271755606   LETICIA ARAUJO BRANDAO                                      32415652000183GDU LOTEAMENTOS LTDA                                        250158010520210000008370000 0000000090000 UAv Pres Juscelino Kubitschek 1 AP Y106 GAFISA DESENVOLVIM   045430007107                    SP          
R040772240300019320210025538431700963   SIRIO JOSE MALLMANN                                         32415652000183GDU LOTEAMENTOS LTDA                                        250090010520210000012090000 0000000130000 UAv Pres Juscelino Kubitschek 1 AP B315 GAFISA DESENVOLVIMEN 045430007107                    SP          
R040772240300019320210025638431700963   SIRIO JOSE MALLMANN                                         32415652000183GDU LOTEAMENTOS LTDA                                        250091010520210000012090000 0000000130000 UAv Pres Juscelino Kubitschek 1 AP G331 GAFISA DESENVOLVIMEN 045430007107                    SP          
R040772240300019320210025741507255861   YARA NUNES DE SÁ                                            01545826000107GAFISA S.A.                                                 250131010520210000028094399 0000000219488 U Rua Antonieta 602 AP 23 MOOV PARQUE MAIA                   070801206477                    SP          
R040772240300019320210025893465505549   NILSON GARCEZ MONTENEGRO JÚNIOR                             32415652000183GDU LOTEAMENTOS LTDA                                        249975010520210000015040000 0000000160000 UAv Pres Juscelino Kubitschek 1 AP G17 GAFISA DESENVOLVIMENT 045430007107                    SP          
R040772240300019320210025907318156705   LUCIENE VIANNA DA SILVA RIZZO                               32415652000183GDU LOTEAMENTOS LTDA                                        250154010520210000008370000 0000000090000 UAv Pres Juscelino Kubitschek 1 AP V123 GAFISA DESENVOLVIM   045430007107                    SP          
R040772240300019320210026004553256690   OSMAR FERREIRA GOMES FILHO                                  32415652000183GDU LOTEAMENTOS LTDA                                        250167010520210000009300000 0000000100000 UAv Pres Juscelino Kubitschek 1 AP A215 GAFISA DESENVOLVIMEN 045430007107                    SP          
R040772240300019320210026104553256690   OSMAR FERREIRA GOMES FILHO                                  32415652000183GDU LOTEAMENTOS LTDA                                        250152010520210000009300000 0000000100000 UAv Pres Juscelino Kubitschek 1 AP A217 GAFISA DESENVOLVIMEN 045430007107                    SP          
R040772240300019320210026205431369814   BULOS GEORGES RICHA                                         01545826000107GAFISA S.A.                                                 250189010520210000028041840 0000000056202 U Rua Antonieta 602 AP 25 MOOV PARQUE MAIA                   070801206477                    SP          
R040772240300019320210026391618916068   GILSON WAGNER UNGARETTE ESCOBAR                             32415652000183GDU LOTEAMENTOS LTDA                                        250172010520210000014880000 0000000060800 UAv Pres Juscelino Kubitschek 1 AP G334 GAFISA DESENVOLVIM   045430007107                    SP          
R040772240300019320210026491618916068   GILSON WAGNER UNGARETTE ESCOBAR                             32415652000183GDU LOTEAMENTOS LTDA                                        250173010520210000014880000 0000000060800 UAv Pres Juscelino Kubitschek 1 AP E307 GAFISA DESENVOLVIM   045430007107                    SP          
R040772240300019320210026518339033000126CAPITANEO                                                   32415652000183GDU LOTEAMENTOS LTDA                                        250207010520210000012834000 0000000138000 UAv Pres Juscelino Kubitschek 1 AP G333 GAFISA DESENVOLVIMEN 045430007107                    SP          
R040772240300019320210026628966715877   ANDRE MIKIO HORI                                            01545826000107GAFISA S.A.                                                 250187010520210000039351480 0000000078869 UAVENIDA INTERLAGOS 1740 AP 73B BOSQUE MARAJOARA             046600027107                    SP          
R040772240300019320210026721595357882   KARINA EGUCHI FERREIRA ISOLA                                34425758000193I230 CORONEL MURSA SPE - EMPRE                              250186010520210000015072000 0000000157000 URUA CORONEL MURSA 66 AP 59A MOOV ESTACAO BRAS               030430507107                    SP          
R040772240300019320210026812440365874   PAULO CESAR DIAS GOMES                                      34425758000193I230 CORONEL MURSA SPE - EMPRE                              250221010520210000016384200 0000000148155 URUA CORONEL MURSA 66 AP 37B MOOV ESTACAO BRAS               030430507107                    SP          
R040772240300019320210026934120509893   ROBSON RAIMUNDO DOS SANTOS                                  01545826000107GAFISA S.A.                                                 250185010520210000028406400 0000000221925 U Rua Antonieta 602 AP 35 MOOV PARQUE MAIA                   070801206477                    SP          
R040772240300019320210027007672510754   FLAVIANO MATOS RUY                                          32415652000183GDU LOTEAMENTOS LTDA                                        250182010520210000009300000 0000000100000 UAv Pres Juscelino Kubitschek 1 AP Y110 GAFISA DESENVOLVIMEN 045430007107                    SP          
R040772240300019320210027107672510754   FLAVIANO MATOS RUY                                          32415652000183GDU LOTEAMENTOS LTDA                                        250183010520210000009300000 0000000100000 UAv Pres Juscelino Kubitschek 1 AP Y113 GAFISA DESENVOLVIMEN 045430007107                    SP          
R040772240300019320210027207672510754   FLAVIANO MATOS RUY                                          32415652000183GDU LOTEAMENTOS LTDA                                        250181010520210000009300000 0000000100000 UAv Pres Juscelino Kubitschek 1 AP Y114 GAFISA DESENVOLVIMEN 045430007107                    SP          
R040772240300019320210027307255938817   SANDRO SQUADRONI                                            01545826000107GAFISA S.A.                                                 250214010520210000054240000 0000000423750 UAlameda Porcelana 185 AP 31 MOOV ESPACO CERAMICA            095311507077                    SP          
R040772240300019320210027424295200000187H R ADMINISTRADORA DE BENS                                  32415652000183GDU LOTEAMENTOS LTDA                                        250216010520210000013020000 0000000140000 UAv Pres Juscelino Kubitschek 1 AP G308 GAFISA DESENVOLVIMEN 045430007107                    SP          
R040772240300019320210027505885165890   LUIS HENRIQUE DE ALMEIDA BRUNO                              11004776000104CONSORCIO JARDINS DA BARRA II                               249990010520210000077280000 0000000603750 UAV MARQUES DE SÃO VICENTE 2860 AP 85 MARQUES 2900           050360407107                    SP          
R040772240300019320210027617583633800   DANIEL PAULINO                                              11004776000104CONSORCIO JARDINS DA BARRA II                               250009010520210000040236000 0000000304500 UAV MARQUES DE SÃO VICENTE 2860 AP 506 BARRA VISTA           050360407107                    SP          
R040772240300019320210027700825716861   EGLE PEREIRA PAZO                                           34425758000193I230 CORONEL MURSA SPE - EMPRE                              250170010520210000016227400 0000000071795 URUA CORONEL MURSA 66 AP 149A MOOV ESTACAO BRAS              030430507107                    SP          
R040772240300019320210027834029546803   ANITA ZHANG YU                                              01545826000107GAFISA S.A.                                                 250210010520210000080580000 0000000161500 URua Tuiuti 626 AP 213 SCENA TATUAPE                         030810157107                    SP          
R040772240300019320210027936950787820   FELIPE BERNARDO DOS SANTOS                                  01545826000107GAFISA S.A.                                                 250217010520210000064369200 0000000129010 URUA JOSE DOS REIS 616 AP 172A MOOV ESTACAO VILA PRUDENTE    031390407107                    SP          
R040772240300019320210028005562045818   FLAVIO ALVES                                                12707231000119GAFISA SPE-128 EMP.                                         250215010520210000110083400 0000001171100 UALAMEDA PAINEIRA VE S/N, LT 1 AP 124 BELVEDERE LORIAN BOULE 060303196789                    SP          
R040772240300019320210028131655583883   LIGIA FEICHAS VIEIRA                                        12707231000119GAFISA SPE-128 EMP.                                         250222010520210000064263721 0000000502060 UALAMEDA PAINEIRA VE S/N, LT 1 AP 233 BELVEDERE LORIAN BOULE 060303196789                    SP          
R040772240300019320210028234571992807   PEDRO HENRIQUE DOS SANTOS                                   12707231000119GAFISA SPE-128 EMP.                                         250231010520210000066606393 0000000520362 UALAMEDA PAINEIRA VE S/N, LT 1 AP 246 BELVEDERE LORIAN BOULE 060303196789                    SP          
R040772240300019320210028372495243991   SYLVIA CRISTINE BELLIO                                      01545826000107GAFISA S.A.                                                 250230010520210000062920008 0000000177759 UAlameda Porcelana 185 AP 151 MOOV ESPACO CERAMICA           095311507077                    SP          
R040772240300019320210028428284772825   RENATA RICHARDI DOS SANTOS                                  01545826000107GAFISA S.A.                                                 250195010520210000081916680 0000000164179 URua Tuiuti 626 AP 162 SCENA TATUAPE                         030810157107                    SP          
R040772240300019320210028537822106899   REBECCA BEZERRA DUARTE GUIMARÃES                            34425758000193I230 CORONEL MURSA SPE - EMPRE                              250212010520210000015268800 0000000127240 URUA CORONEL MURSA 66 AP 38B MOOV ESTACAO BRAS               030430507107                    SP          
R040772240300019320210028645351329840   KELVIN WEN JIE RUAN ZHANG WU                                12707231000119GAFISA SPE-128 EMP.                                         250242010520210000059798400 0000000467175 UALAMEDA PAINEIRA VE S/N, LT 1 AP 256 BELVEDERE LORIAN BOULE 060303196789                    SP          
R040772240300019320210028728653767886   KATIA RIBEIRO PEREIRA LIMA                                  01545826000107GAFISA S.A.                                                 250188010520210000031473600 0000000063080 UAv. Inajar de Souza 1137 AP 136 MOOV FREGUESIA              054430027107                    SP          
R040772240300019320210028831448405807   ADRIANA DE CASTRO                                           01545826000107GAFISA S.A.                                                 250268010520210000029519680 0000000108154 UAv. Inajar de Souza 1137 AP 54 MOOV FREGUESIA               054430027107                    SP          
R040772240300019320210028920535689845   CAROLINA FALGETANO MONACO                                   01545826000107GAFISA S.A.                                                 250232010520210000026432800 0000000224960 URUA AFONSO DE FREITAS 75 AP 62 UPSIDE PARAISO               040060507107                    SP          
R040772240300019320210029039298076886   ERIC DE SOUZA ROCHA                                         01545826000107GAFISA S.A.                                                 250258010520210000084049680 0000000168454 URua Tuiuti 626 AP 183 SCENA TATUAPE                         030810157107                    SP          
R040772240300019320210029137584022000156XD EMPREENDIMENTOS                                          32415652000183GDU LOTEAMENTOS LTDA                                        250248010520210000013020000 0000000053200 UAv Pres Juscelino Kubitschek 1 AP A310 GAFISA DESENVOLVIM   045430007107                    SP          
R040772240300019320210029201674282508   LEA NASCIMENTO DIAS                                         32415652000183GDU LOTEAMENTOS LTDA                                        250261010520210000015040000 0000000160000 UAv Pres Juscelino Kubitschek 1 AP L17 GAFISA DESENVOLVIMENT 045430007107                    SP          
R040772240300019320210029301674282508   LEA NASCIMENTO DIAS                                         32415652000183GDU LOTEAMENTOS LTDA                                        250262010520210000015040000 0000000160000 UAv Pres Juscelino Kubitschek 1 AP K09 GAFISA DESENVOLVIMENT 045430007107                    SP          
R040772240300019320210029401674282508   LEA NASCIMENTO DIAS                                         32415652000183GDU LOTEAMENTOS LTDA                                        250263010520210000015040000 0000000160000 UAv Pres Juscelino Kubitschek 1 AP J13 GAFISA DESENVOLVIMENT 045430007107                    SP          
R040772240300019320210029501674282508   LEA NASCIMENTO DIAS                                         32415652000183GDU LOTEAMENTOS LTDA                                        250264010520210000015040000 0000000160000 UAv Pres Juscelino Kubitschek 1 AP R13 GAFISA DESENVOLVIMENT 045430007107                    SP          
R040772240300019320210029608811216656   RAFAEL CHAGAS BARBOSA                                       34425758000193I230 CORONEL MURSA SPE - EMPRE                              250279010520210000016549264 0000000149648 URUA CORONEL MURSA 66 AP 156A MOOV ESTACAO BRAS              030430507107                    SP          
R040772240300019320210029713687429806   CESAR AUGUSTO MARCELLI                                      01545826000107GAFISA S.A.                                                 250271010520210000028354680 0000000056829 U Rua Antonieta 602 AP 36 MOOV PARQUE MAIA                   070801206477                    SP          
R040772240300019320210029822824567856   NATHALIA DA SILVA SELLIS                                    01545826000107GAFISA S.A.                                                 250284010520210000034855200 0000000296640 UAv. Inajar de Souza 1137 AP 216 MOOV FREGUESIA              054430027107                    SP          
R040772240300019320210029905540816870   LUIZ ANTONIO SPREAFICO                                      01545826000107GAFISA S.A.                                                 250283010520210000004989461 0000000042464 UPaulistania 215 AP 5P SMART VILA MADALENA                   054400007107                    SP          
R040772240300019320210030028430151893   PAULO HENRIQUE FERRARI                                      01545826000107GAFISA S.A.                                                 250306010520210000064600000 0000000459000 UAlameda Porcelana 185 AP 152 MOOV ESPACO CERAMICA           095311507077                    SP          
R040772240300019320210030151341751872   SUELI DAS GRACAS CASTRO                                     35152014000105NUOVE DIREZIONI SPE EMPREENDIM                              250303010520210000178219300 0000001839072 UAv Pres Juscelino Kubitschek 1 AP 64 NORMANDIE MOEMA        045430007107                    SP          
R040772240300019320210030279083226891   JULIO PONTES NETO                                           33518766000111UPCON CONSTANTINO 33 EMPR.                                  250315010520210000069120000 0000000806400 UR OTAVIO TARQUINIO DE SOUZA 12 AP 1401 INVERT CAMPO BELO    046130037107                    SP          
R040772240300019320210030325669444825   FABIANA DE SOUZA MENDEZ                                     33518766000111UPCON CONSTANTINO 33 EMPR.                                  250339010520210000033858000 0000000342000 UR OTAVIO TARQUINIO DE SOUZA 12 AP 508 INVERT CAMPO BELO     046130037107                    SP          
R040772240300019320210030408575606891   JOSE NOTARI FILHO                                           33518766000111UPCON CONSTANTINO 33 EMPR.                                  250312010520210000079900000 0000000894500 UR OTAVIO TARQUINIO DE SOUZA 12 AP 1303 INVERT CAMPO BELO    046130037107                    SP          
R040772240300019320210030508575606891   JOSE NOTARI FILHO                                           33518766000111UPCON CONSTANTINO 33 EMPR.                                  250309010520210000079900000 0000000894500 UR OTAVIO TARQUINIO DE SOUZA 12 AP 1403 INVERT CAMPO BELO    046130037107                    SP          
R040772240300019320210030608575606891   JOSE NOTARI FILHO                                           33518766000111UPCON CONSTANTINO 33 EMPR.                                  250313010520210000079900000 0000000894500 UR OTAVIO TARQUINIO DE SOUZA 12 AP 1503 INVERT CAMPO BELO    046130037107                    SP          
R040772240300019320210030748036781387   ANDREA PRACIANO BRAGA                                       33518766000111UPCON CONSTANTINO 33 EMPR.                                  250311010520210000036174600 0000000365400 UR OTAVIO TARQUINIO DE SOUZA 12 AP 502 INVERT CAMPO BELO     046130037107                    SP          
R040772240300019320210030836299572850   MARCELO DOS SANTOS ANDRADE                                  33518766000111UPCON CONSTANTINO 33 EMPR.                                  250345010520210000133344000 0000001277880 UR OTAVIO TARQUINIO DE SOUZA 12 AP 1904 INVERT CAMPO BELO    046130037107                    SP          
